{
  "_format": "hh-sol-artifact-1",
  "contractName": "BettingGame",
  "sourceName": "contracts/betting.sol",
  "abi": [
    {
      "inputs": [
        {
          "internalType": "address",
          "name": "_chess",
          "type": "address"
        },
        {
          "internalType": "address",
          "name": "_leela",
          "type": "address"
        },
        {
          "internalType": "uint256",
          "name": "initialPoolSize",
          "type": "uint256"
        }
      ],
      "stateMutability": "nonpayable",
      "type": "constructor"
    },
    {
      "anonymous": false,
      "inputs": [
        {
          "indexed": true,
          "internalType": "address",
          "name": "previousOwner",
          "type": "address"
        },
        {
          "indexed": true,
          "internalType": "address",
          "name": "newOwner",
          "type": "address"
        }
      ],
      "name": "OwnershipTransferred",
      "type": "event"
    },
    {
      "anonymous": false,
      "inputs": [
        {
          "indexed": false,
          "internalType": "bool",
          "name": "leelaWon",
          "type": "bool"
        }
      ],
      "name": "gameEnd",
      "type": "event"
    },
    {
      "anonymous": false,
      "inputs": [
        {
          "indexed": false,
          "internalType": "bool",
          "name": "leelaColor",
          "type": "bool"
        }
      ],
      "name": "gameStart",
      "type": "event"
    },
    {
      "anonymous": false,
      "inputs": [
        {
          "indexed": false,
          "internalType": "uint16",
          "name": "worldMove",
          "type": "uint16"
        },
        {
          "indexed": false,
          "internalType": "uint16",
          "name": "leelaMove",
          "type": "uint16"
        }
      ],
      "name": "movePlayed",
      "type": "event"
    },
    {
      "anonymous": false,
      "inputs": [
        {
          "indexed": false,
          "internalType": "address",
          "name": "player",
          "type": "address"
        },
        {
          "indexed": false,
          "internalType": "bool",
          "name": "leelaSide",
          "type": "bool"
        }
      ],
      "name": "stakeMade",
      "type": "event"
    },
    {
      "anonymous": false,
      "inputs": [
        {
          "indexed": false,
          "internalType": "address",
          "name": "player",
          "type": "address"
        },
        {
          "indexed": false,
          "internalType": "uint16",
          "name": "move",
          "type": "uint16"
        }
      ],
      "name": "voteMade",
      "type": "event"
    },
    {
      "stateMutability": "payable",
      "type": "fallback"
    },
    {
      "inputs": [
        {
          "internalType": "address",
          "name": "",
          "type": "address"
        }
      ],
      "name": "accountsPayable",
      "outputs": [
        {
          "internalType": "uint256",
          "name": "",
          "type": "uint256"
        }
      ],
      "stateMutability": "view",
      "type": "function"
    },
    {
      "inputs": [
        {
          "internalType": "bool",
          "name": "leelaSide",
          "type": "bool"
        }
      ],
      "name": "addStake",
      "outputs": [],
      "stateMutability": "payable",
      "type": "function"
    },
    {
      "inputs": [],
      "name": "callTimerOver",
      "outputs": [],
      "stateMutability": "nonpayable",
      "type": "function"
    },
    {
      "inputs": [],
      "name": "chess",
      "outputs": [
        {
          "internalType": "contract Chess",
          "name": "",
          "type": "address"
        }
      ],
      "stateMutability": "view",
      "type": "function"
    },
    {
      "inputs": [],
      "name": "claimPayout",
      "outputs": [],
      "stateMutability": "nonpayable",
      "type": "function"
    },
    {
      "inputs": [],
      "name": "gameIndex",
      "outputs": [
        {
          "internalType": "uint16",
          "name": "",
          "type": "uint16"
        }
      ],
      "stateMutability": "view",
      "type": "function"
    },
    {
      "inputs": [],
      "name": "getWorldMove",
      "outputs": [
        {
          "internalType": "uint16",
          "name": "",
          "type": "uint16"
        }
      ],
      "stateMutability": "view",
      "type": "function"
    },
    {
      "inputs": [],
      "name": "initVal",
      "outputs": [
        {
          "internalType": "uint256",
          "name": "",
          "type": "uint256"
        }
      ],
      "stateMutability": "view",
      "type": "function"
    },
    {
      "inputs": [],
      "name": "leela",
      "outputs": [
        {
          "internalType": "contract Leela",
          "name": "",
          "type": "address"
        }
      ],
      "stateMutability": "view",
      "type": "function"
    },
    {
      "inputs": [],
      "name": "leelaColor",
      "outputs": [
        {
          "internalType": "bool",
          "name": "",
          "type": "bool"
        }
      ],
      "stateMutability": "view",
      "type": "function"
    },
    {
      "inputs": [],
      "name": "leelaMove",
      "outputs": [
        {
          "internalType": "uint16",
          "name": "",
          "type": "uint16"
        }
      ],
      "stateMutability": "view",
      "type": "function"
    },
    {
      "inputs": [],
      "name": "leelaPoolSize",
      "outputs": [
        {
          "internalType": "uint256",
          "name": "",
          "type": "uint256"
        }
      ],
      "stateMutability": "view",
      "type": "function"
    },
    {
      "inputs": [
        {
          "internalType": "uint16",
          "name": "",
          "type": "uint16"
        },
        {
          "internalType": "address",
          "name": "",
          "type": "address"
        }
      ],
      "name": "leelaShares",
      "outputs": [
        {
          "internalType": "uint256",
          "name": "",
          "type": "uint256"
        }
      ],
      "stateMutability": "view",
      "type": "function"
    },
    {
      "inputs": [
        {
          "internalType": "uint16",
          "name": "",
          "type": "uint16"
        },
        {
          "internalType": "address",
          "name": "",
          "type": "address"
        }
      ],
      "name": "leelaStakes",
      "outputs": [
        {
          "internalType": "uint256",
          "name": "",
          "type": "uint256"
        }
      ],
      "stateMutability": "view",
      "type": "function"
    },
    {
      "inputs": [],
      "name": "minStake",
      "outputs": [
        {
          "internalType": "uint256",
          "name": "",
          "type": "uint256"
        }
      ],
      "stateMutability": "view",
      "type": "function"
    },
    {
      "inputs": [],
      "name": "moveIndex",
      "outputs": [
        {
          "internalType": "uint16",
          "name": "",
          "type": "uint16"
        }
      ],
      "stateMutability": "view",
      "type": "function"
    },
    {
      "inputs": [
        {
          "internalType": "uint16",
          "name": "",
          "type": "uint16"
        },
        {
          "internalType": "uint16",
          "name": "",
          "type": "uint16"
        },
        {
          "internalType": "uint16",
          "name": "",
          "type": "uint16"
        }
      ],
      "name": "movesToVotes",
      "outputs": [
        {
          "internalType": "uint256",
          "name": "",
          "type": "uint256"
        }
      ],
      "stateMutability": "view",
      "type": "function"
    },
    {
      "inputs": [],
      "name": "owner",
      "outputs": [
        {
          "internalType": "address",
          "name": "",
          "type": "address"
        }
      ],
      "stateMutability": "view",
      "type": "function"
    },
    {
      "inputs": [],
      "name": "renounceOwnership",
      "outputs": [],
      "stateMutability": "nonpayable",
      "type": "function"
    },
    {
      "inputs": [
        {
          "internalType": "address",
          "name": "_chess",
          "type": "address"
        }
      ],
      "name": "setChess",
      "outputs": [],
      "stateMutability": "nonpayable",
      "type": "function"
    },
    {
      "inputs": [
        {
          "internalType": "address",
          "name": "_leela",
          "type": "address"
        }
      ],
      "name": "setLeela",
      "outputs": [],
      "stateMutability": "nonpayable",
      "type": "function"
    },
    {
      "inputs": [
        {
          "internalType": "uint256",
          "name": "_minStake",
          "type": "uint256"
        }
      ],
      "name": "setMinStake",
      "outputs": [],
      "stateMutability": "nonpayable",
      "type": "function"
    },
    {
      "inputs": [
        {
          "internalType": "uint256",
          "name": "_a",
          "type": "uint256"
        }
      ],
      "name": "setPoolSize",
      "outputs": [],
      "stateMutability": "nonpayable",
      "type": "function"
    },
    {
      "inputs": [
        {
          "internalType": "uint256",
          "name": "d",
          "type": "uint256"
        }
      ],
      "name": "setVotePeriod",
      "outputs": [],
      "stateMutability": "nonpayable",
      "type": "function"
    },
    {
      "inputs": [],
      "name": "totalLeelaShares",
      "outputs": [
        {
          "internalType": "uint256",
          "name": "",
          "type": "uint256"
        }
      ],
      "stateMutability": "view",
      "type": "function"
    },
    {
      "inputs": [],
      "name": "totalWorldShares",
      "outputs": [
        {
          "internalType": "uint256",
          "name": "",
          "type": "uint256"
        }
      ],
      "stateMutability": "view",
      "type": "function"
    },
    {
      "inputs": [
        {
          "internalType": "address",
          "name": "newOwner",
          "type": "address"
        }
      ],
      "name": "transferOwnership",
      "outputs": [],
      "stateMutability": "nonpayable",
      "type": "function"
    },
    {
      "inputs": [],
      "name": "votePeriodDuration",
      "outputs": [
        {
          "internalType": "uint256",
          "name": "",
          "type": "uint256"
        }
      ],
      "stateMutability": "view",
      "type": "function"
    },
    {
      "inputs": [],
      "name": "votePeriodEnd",
      "outputs": [
        {
          "internalType": "uint256",
          "name": "",
          "type": "uint256"
        }
      ],
      "stateMutability": "view",
      "type": "function"
    },
    {
      "inputs": [
        {
          "internalType": "uint16",
          "name": "move",
          "type": "uint16"
        }
      ],
      "name": "voteWorldMove",
      "outputs": [],
      "stateMutability": "nonpayable",
      "type": "function"
    },
    {
      "inputs": [
        {
          "internalType": "uint16",
          "name": "",
          "type": "uint16"
        },
        {
          "internalType": "uint16",
          "name": "",
          "type": "uint16"
        },
        {
          "internalType": "address",
          "name": "",
          "type": "address"
        }
      ],
      "name": "voters",
      "outputs": [
        {
          "internalType": "uint16",
          "name": "",
          "type": "uint16"
        }
      ],
      "stateMutability": "view",
      "type": "function"
    },
    {
      "inputs": [
        {
          "internalType": "uint16",
          "name": "",
          "type": "uint16"
        },
        {
          "internalType": "uint256",
          "name": "",
          "type": "uint256"
        }
      ],
      "name": "votersList",
      "outputs": [
        {
          "internalType": "address",
          "name": "",
          "type": "address"
        }
      ],
      "stateMutability": "view",
      "type": "function"
    },
    {
      "inputs": [
        {
          "internalType": "uint16",
          "name": "",
          "type": "uint16"
        },
        {
          "internalType": "address",
          "name": "",
          "type": "address"
        }
      ],
      "name": "votersMap",
      "outputs": [
        {
          "internalType": "bool",
          "name": "",
          "type": "bool"
        }
      ],
      "stateMutability": "view",
      "type": "function"
    },
    {
      "inputs": [],
      "name": "worldPoolSize",
      "outputs": [
        {
          "internalType": "uint256",
          "name": "",
          "type": "uint256"
        }
      ],
      "stateMutability": "view",
      "type": "function"
    },
    {
      "inputs": [
        {
          "internalType": "uint16",
          "name": "",
          "type": "uint16"
        },
        {
          "internalType": "address",
          "name": "",
          "type": "address"
        }
      ],
      "name": "worldShares",
      "outputs": [
        {
          "internalType": "uint256",
          "name": "",
          "type": "uint256"
        }
      ],
      "stateMutability": "view",
      "type": "function"
    },
    {
      "inputs": [
        {
          "internalType": "uint16",
          "name": "",
          "type": "uint16"
        },
        {
          "internalType": "address",
          "name": "",
          "type": "address"
        }
      ],
      "name": "worldStakes",
      "outputs": [
        {
          "internalType": "uint256",
          "name": "",
          "type": "uint256"
        }
      ],
      "stateMutability": "view",
      "type": "function"
    },
    {
      "stateMutability": "payable",
      "type": "receive"
    }
  ],
  "bytecode": "0x6080604052662386f26fc100006003556000600460006101000a81548161ffff021916908361ffff1602179055506000600460026101000a81548161ffff021916908361ffff16021790555060006004806101000a81548160ff021916908360ff160217905550610e106006553480156200007957600080fd5b5060405162003e2238038062003e2283398181016040528101906200009f919062000567565b620000bf620000b36200031760201b60201c565b6200031f60201b60201c565b82600160006101000a81548173ffffffffffffffffffffffffffffffffffffffff021916908373ffffffffffffffffffffffffffffffffffffffff160217905550600160009054906101000a900473ffffffffffffffffffffffffffffffffffffffff1673ffffffffffffffffffffffffffffffffffffffff1663a0a1f49b6040518163ffffffff1660e01b8152600401600060405180830381600087803b1580156200016b57600080fd5b505af115801562000180573d6000803e3d6000fd5b5050505081600260006101000a81548173ffffffffffffffffffffffffffffffffffffffff021916908373ffffffffffffffffffffffffffffffffffffffff160217905550600260009054906101000a900473ffffffffffffffffffffffffffffffffffffffff1673ffffffffffffffffffffffffffffffffffffffff16634ace08846040518163ffffffff1660e01b81526004016000604051808303816000875af115801562000235573d6000803e3d6000fd5b505050506040513d6000823e3d601f19601f8201168201806040525081019062000260919062000777565b601460008061ffff16815260200190815260200160002060008061ffff1681526020019081526020016000209080519060200190620002a1929190620003e3565b508060098190555080600881905550806007819055506000601060006101000a81548160ff0219169083151502179055506000600460006101000a81548161ffff021916908361ffff1602179055506000600460026101000a81548161ffff021916908361ffff160217905550505050620007c8565b600033905090565b60008060009054906101000a900473ffffffffffffffffffffffffffffffffffffffff169050816000806101000a81548173ffffffffffffffffffffffffffffffffffffffff021916908373ffffffffffffffffffffffffffffffffffffffff1602179055508173ffffffffffffffffffffffffffffffffffffffff168173ffffffffffffffffffffffffffffffffffffffff167f8be0079c531659141344cd1fd0a4f28419497f9722a3daafe3b4186f6b6457e060405160405180910390a35050565b82805482825590600052602060002090600f01601090048101928215620004815791602002820160005b838211156200044f57835183826101000a81548161ffff021916908361ffff16021790555092602001926002016020816001010492830192600103026200040d565b80156200047f5782816101000a81549061ffff02191690556002016020816001010492830192600103026200044f565b505b50905062000490919062000494565b5090565b5b80821115620004af57600081600090555060010162000495565b5090565b6000604051905090565b600080fd5b600080fd5b600073ffffffffffffffffffffffffffffffffffffffff82169050919050565b6000620004f482620004c7565b9050919050565b6200050681620004e7565b81146200051257600080fd5b50565b6000815190506200052681620004fb565b92915050565b6000819050919050565b62000541816200052c565b81146200054d57600080fd5b50565b600081519050620005618162000536565b92915050565b600080600060608486031215620005835762000582620004bd565b5b6000620005938682870162000515565b9350506020620005a68682870162000515565b9250506040620005b98682870162000550565b9150509250925092565b600080fd5b6000601f19601f8301169050919050565b7f4e487b7100000000000000000000000000000000000000000000000000000000600052604160045260246000fd5b6200061382620005c8565b810181811067ffffffffffffffff82111715620006355762000634620005d9565b5b80604052505050565b60006200064a620004b3565b905062000658828262000608565b919050565b600067ffffffffffffffff8211156200067b576200067a620005d9565b5b602082029050602081019050919050565b600080fd5b600061ffff82169050919050565b620006aa8162000691565b8114620006b657600080fd5b50565b600081519050620006ca816200069f565b92915050565b6000620006e7620006e1846200065d565b6200063e565b905080838252602082019050602084028301858111156200070d576200070c6200068c565b5b835b818110156200073a5780620007258882620006b9565b8452602084019350506020810190506200070f565b5050509392505050565b600082601f8301126200075c576200075b620005c3565b5b81516200076e848260208601620006d0565b91505092915050565b60006020828403121562000790576200078f620004bd565b5b600082015167ffffffffffffffff811115620007b157620007b0620004c2565b5b620007bf8482850162000744565b91505092915050565b61364a80620007d86000396000f3fe6080604052600436106102135760003560e01c80636d54c26c11610118578063ae5fafdb116100a0578063d13f801a1161006f578063d13f801a1461079e578063e88499a9146107db578063ebabb86f146107f2578063f2fde38b1461081d578063fa6ed5db146108465761021a565b8063ae5fafdb146106f6578063b48d558314610733578063c27554be1461074a578063cdca1aa7146107755761021a565b80639ebbe910116100e75780639ebbe910146105fd578063a5324eff14610628578063a7d2072514610665578063aa069c3f146106a2578063ad84a5fa146106cb5761021a565b80636d54c26c14610567578063715018a6146105925780638c80fd90146105a95780638da5cb5b146105d25761021a565b806350df50a41161019b5780635c937ad91161016a5780635c937ad9146104a157806360d2f6ab146104cc5780636677dfe3146104f757806367b116301461052257806367c7e5a71461054b5761021a565b806350df50a4146103f757806351614b04146104225780635654a3411461044d5780635b7be18a146104785761021a565b80632bdf40f7116101e25780632bdf40f7146102fc578063348427fc14610327578063375b3c0a146103525780633cf428901461037d5780633ea56667146103ba5761021a565b806303f813621461021c5780630de7592f146102455780631b47dbe11461028257806320b59971146102bf5761021a565b3661021a57005b005b34801561022857600080fd5b50610243600480360381019061023e9190612834565b610871565b005b34801561025157600080fd5b5061026c6004803603810190610267919061289b565b6108bd565b60405161027991906128fd565b60405180910390f35b34801561028e57600080fd5b506102a960048036038101906102a49190612918565b6108fa565b6040516102b69190612971565b60405180910390f35b3480156102cb57600080fd5b506102e660048036038101906102e19190612834565b61091f565b6040516102f39190612971565b60405180910390f35b34801561030857600080fd5b50610311610937565b60405161031e9190612971565b60405180910390f35b34801561033357600080fd5b5061033c61093d565b60405161034991906129eb565b60405180910390f35b34801561035e57600080fd5b50610367610963565b6040516103749190612971565b60405180910390f35b34801561038957600080fd5b506103a4600480360381019061039f9190612a32565b610969565b6040516103b19190612a81565b60405180910390f35b3480156103c657600080fd5b506103e160048036038101906103dc9190612918565b6109b7565b6040516103ee9190612971565b60405180910390f35b34801561040357600080fd5b5061040c6109dc565b60405161041991906128fd565b60405180910390f35b34801561042e57600080fd5b506104376109f0565b60405161044491906128fd565b60405180910390f35b34801561045957600080fd5b50610462610a04565b60405161046f91906128fd565b60405180910390f35b34801561048457600080fd5b5061049f600480360381019061049a9190612a9c565b610a18565b005b3480156104ad57600080fd5b506104b6610a8d565b6040516104c39190612971565b60405180910390f35b3480156104d857600080fd5b506104e1610a93565b6040516104ee9190612971565b60405180910390f35b34801561050357600080fd5b5061050c610a99565b6040516105199190612971565b60405180910390f35b34801561052e57600080fd5b5061054960048036038101906105449190612a9c565b610a9f565b005b61056560048036038101906105609190612b01565b610ab1565b005b34801561057357600080fd5b5061057c610fda565b6040516105899190612b3d565b60405180910390f35b34801561059e57600080fd5b506105a7610fed565b005b3480156105b557600080fd5b506105d060048036038101906105cb9190612a9c565b611001565b005b3480156105de57600080fd5b506105e7611013565b6040516105f49190612a81565b60405180910390f35b34801561060957600080fd5b5061061261103c565b60405161061f9190612971565b60405180910390f35b34801561063457600080fd5b5061064f600480360381019061064a9190612918565b611042565b60405161065c9190612971565b60405180910390f35b34801561067157600080fd5b5061068c60048036038101906106879190612918565b611067565b6040516106999190612b3d565b60405180910390f35b3480156106ae57600080fd5b506106c960048036038101906106c49190612b58565b611096565b005b3480156106d757600080fd5b506106e06116d0565b6040516106ed9190612971565b60405180910390f35b34801561070257600080fd5b5061071d60048036038101906107189190612918565b6116d6565b60405161072a9190612971565b60405180910390f35b34801561073f57600080fd5b506107486116fb565b005b34801561075657600080fd5b5061075f611719565b60405161076c91906128fd565b60405180910390f35b34801561078157600080fd5b5061079c60048036038101906107979190612834565b6118d7565b005b3480156107aa57600080fd5b506107c560048036038101906107c09190612b85565b611923565b6040516107d29190612971565b60405180910390f35b3480156107e757600080fd5b506107f0611955565b005b3480156107fe57600080fd5b50610807611aa9565b6040516108149190612bf9565b60405180910390f35b34801561082957600080fd5b50610844600480360381019061083f9190612834565b611acf565b005b34801561085257600080fd5b5061085b611b52565b6040516108689190612971565b60405180910390f35b610879611b58565b80600260006101000a81548173ffffffffffffffffffffffffffffffffffffffff021916908373ffffffffffffffffffffffffffffffffffffffff16021790555050565b6015602052826000526040600020602052816000526040600020602052806000526040600020600092509250509054906101000a900461ffff1681565b600c602052816000526040600020602052806000526040600020600091509150505481565b60056020528060005260406000206000915090505481565b600e5481565b600160009054906101000a900473ffffffffffffffffffffffffffffffffffffffff1681565b60035481565b6017602052816000526040600020818154811061098557600080fd5b906000526020600020016000915091509054906101000a900473ffffffffffffffffffffffffffffffffffffffff1681565b600a602052816000526040600020602052806000526040600020600091509150505481565b600460029054906101000a900461ffff1681565b601260009054906101000a900461ffff1681565b600460009054906101000a900461ffff1681565b610a20611b58565b600754600954148015610a365750600754600854145b610a75576040517f08c379a0000000000000000000000000000000000000000000000000000000008152600401610a6c90612c97565b60405180910390fd5b80600981905550806008819055508060078190555050565b60065481565b60095481565b60075481565b610aa7611b58565b8060068190555050565b600060048054906101000a900460ff1660ff1614610b04576040517f08c379a0000000000000000000000000000000000000000000000000000000008152600401610afb90612d03565b60405180910390fd5b60016004806101000a81548160ff021916908360ff160217905550600354341015610b64576040517f08c379a0000000000000000000000000000000000000000000000000000000008152600401610b5b90612d95565b60405180910390fd5b80610ca65734600a6000600460009054906101000a900461ffff1661ffff1661ffff16815260200190815260200160002060003373ffffffffffffffffffffffffffffffffffffffff1673ffffffffffffffffffffffffffffffffffffffff16815260200190815260200160002060008282540192505081905550600854600754340281610bf557610bf4612db5565b5b04600c6000600460009054906101000a900461ffff1661ffff1661ffff16815260200190815260200160002060003373ffffffffffffffffffffffffffffffffffffffff1673ffffffffffffffffffffffffffffffffffffffff16815260200190815260200160002060008282540192505081905550600854600754340281610c8157610c80612db5565b5b04600f6000828254019250508190555034600860008282540192505081905550610ddf565b34600b6000600460009054906101000a900461ffff1661ffff1661ffff16815260200190815260200160002060003373ffffffffffffffffffffffffffffffffffffffff1673ffffffffffffffffffffffffffffffffffffffff16815260200190815260200160002060008282540192505081905550600954600754340281610d3257610d31612db5565b5b04600d6000600460009054906101000a900461ffff1661ffff1661ffff16815260200190815260200160002060003373ffffffffffffffffffffffffffffffffffffffff1673ffffffffffffffffffffffffffffffffffffffff16815260200190815260200160002060008282540192505081905550600954600754340281610dbe57610dbd612db5565b5b04600e60008282540192505081905550346009600082825401925050819055505b60166000600460009054906101000a900461ffff1661ffff1661ffff16815260200190815260200160002060003373ffffffffffffffffffffffffffffffffffffffff1673ffffffffffffffffffffffffffffffffffffffff16815260200190815260200160002060009054906101000a900460ff16610f6757600160166000600460009054906101000a900461ffff1661ffff1661ffff16815260200190815260200160002060003373ffffffffffffffffffffffffffffffffffffffff1673ffffffffffffffffffffffffffffffffffffffff16815260200190815260200160002060006101000a81548160ff02191690831515021790555060176000600460009054906101000a900461ffff1661ffff1661ffff168152602001908152602001600020339080600181540180825580915050600190039060005260206000200160009091909190916101000a81548173ffffffffffffffffffffffffffffffffffffffff021916908373ffffffffffffffffffffffffffffffffffffffff1602179055505b7f03201ca093210f37a19869b07ed0b2afa1e4caf69c7acf98b14feaeacdcb12ce3382604051610f98929190612de4565b60405180910390a16000610faa611bd6565b90508015610fbb57610fba611bf0565b5b5060006004806101000a81548160ff021916908360ff16021790555050565b601060009054906101000a900460ff1681565b610ff5611b58565b610fff6000612294565b565b611009611b58565b8060038190555050565b60008060009054906101000a900473ffffffffffffffffffffffffffffffffffffffff16905090565b600f5481565b600b602052816000526040600020602052806000526040600020600091509150505481565b60166020528160005260406000206020528060005260406000206000915091509054906101000a900460ff1681565b600060048054906101000a900460ff1660ff16146110e9576040517f08c379a00000000000000000000000000000000000000000000000000000000081526004016110e090612d03565b60405180910390fd5b60016004806101000a81548160ff021916908360ff16021790555060008161ffff160361114b576040517f08c379a000000000000000000000000000000000000000000000000000000000815260040161114290612e59565b60405180910390fd5b600060156000600460009054906101000a900461ffff1661ffff1661ffff1681526020019081526020016000206000600460029054906101000a900461ffff1661ffff1661ffff16815260200190815260200160002060003373ffffffffffffffffffffffffffffffffffffffff1673ffffffffffffffffffffffffffffffffffffffff16815260200190815260200160002060009054906101000a900461ffff1661ffff1614611231576040517f08c379a000000000000000000000000000000000000000000000000000000000815260040161122890612eeb565b60405180910390fd5b6110008161ffff161415801561124d57506120008161ffff1614155b801561125f57506130008161ffff1614155b1561134057600160009054906101000a900473ffffffffffffffffffffffffffffffffffffffff1673ffffffffffffffffffffffffffffffffffffffff166354dca3e4826040518263ffffffff1660e01b81526004016112bf91906128fd565b602060405180830381865afa1580156112dc573d6000803e3d6000fd5b505050506040513d601f19601f820116820180604052508101906113009190612f20565b61133f576040517f08c379a000000000000000000000000000000000000000000000000000000000815260040161133690612f99565b60405180910390fd5b5b600060136000600460009054906101000a900461ffff1661ffff1661ffff1681526020019081526020016000206000600460029054906101000a900461ffff1661ffff1661ffff16815260200190815260200160002060008361ffff1661ffff16815260200190815260200160002054036114525760146000600460009054906101000a900461ffff1661ffff1661ffff1681526020019081526020016000206000600460029054906101000a900461ffff1661ffff1661ffff1681526020019081526020016000208190806001815401808255809150506001900390600052602060002090601091828204019190066002029091909190916101000a81548161ffff021916908361ffff1602179055505b600b6000600460009054906101000a900461ffff1661ffff1661ffff16815260200190815260200160002060003373ffffffffffffffffffffffffffffffffffffffff1673ffffffffffffffffffffffffffffffffffffffff16815260200190815260200160002054600a6000600460009054906101000a900461ffff1661ffff1661ffff16815260200190815260200160002060003373ffffffffffffffffffffffffffffffffffffffff1673ffffffffffffffffffffffffffffffffffffffff1681526020019081526020016000205461152e9190612fe8565b60136000600460009054906101000a900461ffff1661ffff1661ffff1681526020019081526020016000206000600460029054906101000a900461ffff1661ffff1661ffff16815260200190815260200160002060008361ffff1661ffff16815260200190815260200160002060008282546115aa9190612fe8565b925050819055508060156000600460009054906101000a900461ffff1661ffff1661ffff1681526020019081526020016000206000600460029054906101000a900461ffff1661ffff1661ffff16815260200190815260200160002060003373ffffffffffffffffffffffffffffffffffffffff1673ffffffffffffffffffffffffffffffffffffffff16815260200190815260200160002060006101000a81548161ffff021916908361ffff1602179055507fa4f6cf622ac26126c4250ae9ddf557fb939d38f87f8c0b1c76109c98081e4ed4338260405161168e92919061301c565b60405180910390a160006116a0611bd6565b905080156116b1576116b0611bf0565b5b5060006004806101000a81548160ff021916908360ff16021790555050565b60085481565b600d602052816000526040600020602052806000526040600020600091509150505481565b6000611705611bd6565b9050801561171657611715611bf0565b5b50565b600080600060146000600460009054906101000a900461ffff1661ffff1661ffff1681526020019081526020016000206000600460029054906101000a900461ffff1661ffff1661ffff1681526020019081526020016000208054806020026020016040519081016040528092919081815260200182805480156117e457602002820191906000526020600020906000905b82829054906101000a900461ffff1661ffff16815260200190600201906020826001010492830192600103820291508084116117ab5790505b505050505090506000805b82518163ffffffff1610156118cd57600060136000600460009054906101000a900461ffff1661ffff1661ffff1681526020019081526020016000206000600460029054906101000a900461ffff1661ffff1661ffff1681526020019081526020016000206000858463ffffffff168151811061186f5761186e613045565b5b602002602001015161ffff1661ffff168152602001908152602001600020549050828111156118bf57838263ffffffff16815181106118b1576118b0613045565b5b602002602001015194508092505b8180600101925050506117ef565b5082935050505090565b6118df611b58565b80600160006101000a81548173ffffffffffffffffffffffffffffffffffffffff021916908373ffffffffffffffffffffffffffffffffffffffff16021790555050565b601360205282600052604060002060205281600052604060002060205280600052604060002060009250925050505481565b600080600560003373ffffffffffffffffffffffffffffffffffffffff1673ffffffffffffffffffffffffffffffffffffffff1681526020019081526020016000205410156119a357600080fd5b80600560003373ffffffffffffffffffffffffffffffffffffffff1673ffffffffffffffffffffffffffffffffffffffff16815260200190815260200160002060008282546119f29190613074565b9250508190555060003373ffffffffffffffffffffffffffffffffffffffff1682604051611a1f906130d9565b60006040518083038185875af1925050503d8060008114611a5c576040519150601f19603f3d011682016040523d82523d6000602084013e611a61565b606091505b5050905080611aa5576040517f08c379a0000000000000000000000000000000000000000000000000000000008152600401611a9c9061313a565b60405180910390fd5b5050565b600260009054906101000a900473ffffffffffffffffffffffffffffffffffffffff1681565b611ad7611b58565b600073ffffffffffffffffffffffffffffffffffffffff168173ffffffffffffffffffffffffffffffffffffffff1603611b46576040517f08c379a0000000000000000000000000000000000000000000000000000000008152600401611b3d906131cc565b60405180910390fd5b611b4f81612294565b50565b60115481565b611b60612358565b73ffffffffffffffffffffffffffffffffffffffff16611b7e611013565b73ffffffffffffffffffffffffffffffffffffffff1614611bd4576040517f08c379a0000000000000000000000000000000000000000000000000000000008152600401611bcb90613238565b60405180910390fd5b565b60008060115414158015611beb575060115442115b905090565b600060048054906101000a900460ff1660ff1614611c43576040517f08c379a0000000000000000000000000000000000000000000000000000000008152600401611c3a90612d03565b60405180910390fd5b60016004806101000a81548160ff021916908360ff1602179055506000611c68611719565b90506000600260009054906101000a900473ffffffffffffffffffffffffffffffffffffffff1673ffffffffffffffffffffffffffffffffffffffff1663b9c1b0f56040518163ffffffff1660e01b81526004016020604051808303816000875af1158015611cdb573d6000803e3d6000fd5b505050506040513d601f19601f82011682018060405250810190611cff919061326d565b905080601260006101000a81548161ffff021916908361ffff160217905550600160009054906101000a900473ffffffffffffffffffffffffffffffffffffffff1673ffffffffffffffffffffffffffffffffffffffff1663715c67a9836040518263ffffffff1660e01b8152600401611d7991906128fd565b600060405180830381600087803b158015611d9357600080fd5b505af1158015611da7573d6000803e3d6000fd5b505050506004600281819054906101000a900461ffff1680929190611dcb9061329a565b91906101000a81548161ffff021916908361ffff160217905550506000600160009054906101000a900473ffffffffffffffffffffffffffffffffffffffff1673ffffffffffffffffffffffffffffffffffffffff16631b7bbf226040518163ffffffff1660e01b8152600401602060405180830381865afa158015611e55573d6000803e3d6000fd5b505050506040513d601f19601f82011682018060405250810190611e7991906132fd565b905060008160ff1614611f1257611e906000612360565b7f9cb6fb32c305f75e1fa6d12ba1228f6a23f58e2bfcc1f780760bebe7e5fd5767836000604051611ec2929190613365565b60405180910390a17ff0c339daa2dbbdc9f268cd52bf19cb13aa5364c2c80f7559bc25ddd8334e72886000604051611efa9190612b3d565b60405180910390a1611f0a6125ac565b505050612277565b600160009054906101000a900473ffffffffffffffffffffffffffffffffffffffff1673ffffffffffffffffffffffffffffffffffffffff1663715c67a9601260009054906101000a900461ffff166040518263ffffffff1660e01b8152600401611f7d91906128fd565b600060405180830381600087803b158015611f9757600080fd5b505af1158015611fab573d6000803e3d6000fd5b505050506004600281819054906101000a900461ffff1680929190611fcf9061329a565b91906101000a81548161ffff021916908361ffff160217905550507f9cb6fb32c305f75e1fa6d12ba1228f6a23f58e2bfcc1f780760bebe7e5fd576783601260009054906101000a900461ffff1660405161202b92919061338e565b60405180910390a160146000600460009054906101000a900461ffff1661ffff1661ffff1681526020019081526020016000206000600460029054906101000a900461ffff1661ffff1661ffff1681526020019081526020016000208390806001815401808255809150506001900390600052602060002090601091828204019190066002029091909190916101000a81548161ffff021916908361ffff16021790555060146000600460009054906101000a900461ffff1661ffff1661ffff1681526020019081526020016000206000600460029054906101000a900461ffff1661ffff1661ffff168152602001908152602001600020601260009054906101000a900461ffff1690806001815401808255809150506001900390600052602060002090601091828204019190066002029091909190916101000a81548161ffff021916908361ffff160217905550600160009054906101000a900473ffffffffffffffffffffffffffffffffffffffff1673ffffffffffffffffffffffffffffffffffffffff16631b7bbf226040518163ffffffff1660e01b8152600401602060405180830381865afa1580156121e8573d6000803e3d6000fd5b505050506040513d601f19601f8201168201806040525081019061220c91906132fd565b905060008160ff160361226b576122236001612360565b61222b6125ac565b7ff0c339daa2dbbdc9f268cd52bf19cb13aa5364c2c80f7559bc25ddd8334e7288600160405161225b9190612b3d565b60405180910390a1505050612277565b6122736127ac565b5050505b60006004806101000a81548160ff021916908360ff160217905550565b60008060009054906101000a900473ffffffffffffffffffffffffffffffffffffffff169050816000806101000a81548173ffffffffffffffffffffffffffffffffffffffff021916908373ffffffffffffffffffffffffffffffffffffffff1602179055508173ffffffffffffffffffffffffffffffffffffffff168173ffffffffffffffffffffffffffffffffffffffff167f8be0079c531659141344cd1fd0a4f28419497f9722a3daafe3b4186f6b6457e060405160405180910390a35050565b600033905090565b60008161239757600c6000600460009054906101000a900461ffff1661ffff1661ffff1681526020019081526020016000206123c3565b600d6000600460009054906101000a900461ffff1661ffff1661ffff1681526020019081526020016000205b90506000826123d457600f546123d8565b600e545b9050600060176000600460009054906101000a900461ffff1661ffff1661ffff16815260200190815260200160002080548060200260200160405190810160405280929190818152602001828054801561248757602002820191906000526020600020905b8160009054906101000a900473ffffffffffffffffffffffffffffffffffffffff1673ffffffffffffffffffffffffffffffffffffffff168152602001906001019080831161243d575b5050505050905060005b81518110156125a55760008460008484815181106124b2576124b1613045565b5b602002602001015173ffffffffffffffffffffffffffffffffffffffff1673ffffffffffffffffffffffffffffffffffffffff1681526020019081526020016000205490506000600754600261250891906133b7565b6008546009546125189190612fe8565b6125229190613074565b905084818361253191906133b7565b61253b91906133f9565b600560003373ffffffffffffffffffffffffffffffffffffffff1673ffffffffffffffffffffffffffffffffffffffff16815260200190815260200160002060008282546125899190612fe8565b925050819055505050808061259d9061342a565b915050612491565b5050505050565b6007546008819055506007546009819055506004600081819054906101000a900461ffff16809291906125de9061329a565b91906101000a81548161ffff021916908361ffff160217905550506000600460026101000a81548161ffff021916908361ffff160217905550601060009054906101000a900460ff1615601060006101000a81548160ff021916908315150217905550600160009054906101000a900473ffffffffffffffffffffffffffffffffffffffff1673ffffffffffffffffffffffffffffffffffffffff1663a0a1f49b6040518163ffffffff1660e01b8152600401600060405180830381600087803b1580156126ab57600080fd5b505af11580156126bf573d6000803e3d6000fd5b50505050600260009054906101000a900473ffffffffffffffffffffffffffffffffffffffff1673ffffffffffffffffffffffffffffffffffffffff16634ace08846040518163ffffffff1660e01b81526004016000604051808303816000875af1158015612732573d6000803e3d6000fd5b505050506040513d6000823e3d601f19601f8201168201806040525081019061275b91906135cb565b507fdd7cac220f0d2a40373ff193841ea3329dbd06154b21e37dd847f7b9ae986d9d601060009054906101000a900460ff1660405161279a9190612b3d565b60405180910390a16127aa6127ac565b565b600654426127ba9190612fe8565b601181905550565b6000604051905090565b600080fd5b600080fd5b600073ffffffffffffffffffffffffffffffffffffffff82169050919050565b6000612801826127d6565b9050919050565b612811816127f6565b811461281c57600080fd5b50565b60008135905061282e81612808565b92915050565b60006020828403121561284a576128496127cc565b5b60006128588482850161281f565b91505092915050565b600061ffff82169050919050565b61287881612861565b811461288357600080fd5b50565b6000813590506128958161286f565b92915050565b6000806000606084860312156128b4576128b36127cc565b5b60006128c286828701612886565b93505060206128d386828701612886565b92505060406128e48682870161281f565b9150509250925092565b6128f781612861565b82525050565b600060208201905061291260008301846128ee565b92915050565b6000806040838503121561292f5761292e6127cc565b5b600061293d85828601612886565b925050602061294e8582860161281f565b9150509250929050565b6000819050919050565b61296b81612958565b82525050565b60006020820190506129866000830184612962565b92915050565b6000819050919050565b60006129b16129ac6129a7846127d6565b61298c565b6127d6565b9050919050565b60006129c382612996565b9050919050565b60006129d5826129b8565b9050919050565b6129e5816129ca565b82525050565b6000602082019050612a0060008301846129dc565b92915050565b612a0f81612958565b8114612a1a57600080fd5b50565b600081359050612a2c81612a06565b92915050565b60008060408385031215612a4957612a486127cc565b5b6000612a5785828601612886565b9250506020612a6885828601612a1d565b9150509250929050565b612a7b816127f6565b82525050565b6000602082019050612a966000830184612a72565b92915050565b600060208284031215612ab257612ab16127cc565b5b6000612ac084828501612a1d565b91505092915050565b60008115159050919050565b612ade81612ac9565b8114612ae957600080fd5b50565b600081359050612afb81612ad5565b92915050565b600060208284031215612b1757612b166127cc565b5b6000612b2584828501612aec565b91505092915050565b612b3781612ac9565b82525050565b6000602082019050612b526000830184612b2e565b92915050565b600060208284031215612b6e57612b6d6127cc565b5b6000612b7c84828501612886565b91505092915050565b600080600060608486031215612b9e57612b9d6127cc565b5b6000612bac86828701612886565b9350506020612bbd86828701612886565b9250506040612bce86828701612886565b9150509250925092565b6000612be3826129b8565b9050919050565b612bf381612bd8565b82525050565b6000602082019050612c0e6000830184612bea565b92915050565b600082825260208201905092915050565b7f43616e6e6f74206d6f6469667920706f6f6c2073697a65206f6e636520706f6f60008201527f6c7320617265206e6f6e656d7074792e00000000000000000000000000000000602082015250565b6000612c81603083612c14565b9150612c8c82612c25565b604082019050919050565b60006020820190508181036000830152612cb081612c74565b9050919050565b7f5265656e7472616e637947756172643a207265656e7472616e742063616c6c00600082015250565b6000612ced601f83612c14565b9150612cf882612cb7565b602082019050919050565b60006020820190508181036000830152612d1c81612ce0565b9050919050565b7f526563656976656420455448206973206c657373207468616e206d696e20737460008201527f616b650000000000000000000000000000000000000000000000000000000000602082015250565b6000612d7f602383612c14565b9150612d8a82612d23565b604082019050919050565b60006020820190508181036000830152612dae81612d72565b9050919050565b7f4e487b7100000000000000000000000000000000000000000000000000000000600052601260045260246000fd5b6000604082019050612df96000830185612a72565b612e066020830184612b2e565b9392505050565b7f496e76616c6964206d6f76650000000000000000000000000000000000000000600082015250565b6000612e43600c83612c14565b9150612e4e82612e0d565b602082019050919050565b60006020820190508181036000830152612e7281612e36565b9050919050565b7f5573657220616c726561647920766f74656420666f722074686973206d6f766560008201527f20696e6465780000000000000000000000000000000000000000000000000000602082015250565b6000612ed5602683612c14565b9150612ee082612e79565b604082019050919050565b60006020820190508181036000830152612f0481612ec8565b9050919050565b600081519050612f1a81612ad5565b92915050565b600060208284031215612f3657612f356127cc565b5b6000612f4484828501612f0b565b91505092915050565b7f5375626d697474656420696e76616c6964206d6f76652e000000000000000000600082015250565b6000612f83601783612c14565b9150612f8e82612f4d565b602082019050919050565b60006020820190508181036000830152612fb281612f76565b9050919050565b7f4e487b7100000000000000000000000000000000000000000000000000000000600052601160045260246000fd5b6000612ff382612958565b9150612ffe83612958565b925082820190508082111561301657613015612fb9565b5b92915050565b60006040820190506130316000830185612a72565b61303e60208301846128ee565b9392505050565b7f4e487b7100000000000000000000000000000000000000000000000000000000600052603260045260246000fd5b600061307f82612958565b915061308a83612958565b92508282039050818111156130a2576130a1612fb9565b5b92915050565b600081905092915050565b50565b60006130c36000836130a8565b91506130ce826130b3565b600082019050919050565b60006130e4826130b6565b9150819050919050565b7f4661696c656420746f2073656e64207061796f75742e00000000000000000000600082015250565b6000613124601683612c14565b915061312f826130ee565b602082019050919050565b6000602082019050818103600083015261315381613117565b9050919050565b7f4f776e61626c653a206e6577206f776e657220697320746865207a65726f206160008201527f6464726573730000000000000000000000000000000000000000000000000000602082015250565b60006131b6602683612c14565b91506131c18261315a565b604082019050919050565b600060208201905081810360008301526131e5816131a9565b9050919050565b7f4f776e61626c653a2063616c6c6572206973206e6f7420746865206f776e6572600082015250565b6000613222602083612c14565b915061322d826131ec565b602082019050919050565b6000602082019050818103600083015261325181613215565b9050919050565b6000815190506132678161286f565b92915050565b600060208284031215613283576132826127cc565b5b600061329184828501613258565b91505092915050565b60006132a582612861565b915061ffff82036132b9576132b8612fb9565b5b600182019050919050565b600060ff82169050919050565b6132da816132c4565b81146132e557600080fd5b50565b6000815190506132f7816132d1565b92915050565b600060208284031215613313576133126127cc565b5b6000613321848285016132e8565b91505092915050565b6000819050919050565b600061334f61334a6133458461332a565b61298c565b612861565b9050919050565b61335f81613334565b82525050565b600060408201905061337a60008301856128ee565b6133876020830184613356565b9392505050565b60006040820190506133a360008301856128ee565b6133b060208301846128ee565b9392505050565b60006133c282612958565b91506133cd83612958565b92508282026133db81612958565b915082820484148315176133f2576133f1612fb9565b5b5092915050565b600061340482612958565b915061340f83612958565b92508261341f5761341e612db5565b5b828204905092915050565b600061343582612958565b91507fffffffffffffffffffffffffffffffffffffffffffffffffffffffffffffffff820361346757613466612fb9565b5b600182019050919050565b600080fd5b6000601f19601f8301169050919050565b7f4e487b7100000000000000000000000000000000000000000000000000000000600052604160045260246000fd5b6134c082613477565b810181811067ffffffffffffffff821117156134df576134de613488565b5b80604052505050565b60006134f26127c2565b90506134fe82826134b7565b919050565b600067ffffffffffffffff82111561351e5761351d613488565b5b602082029050602081019050919050565b600080fd5b600061354761354284613503565b6134e8565b9050808382526020820190506020840283018581111561356a5761356961352f565b5b835b81811015613593578061357f8882613258565b84526020840193505060208101905061356c565b5050509392505050565b600082601f8301126135b2576135b1613472565b5b81516135c2848260208601613534565b91505092915050565b6000602082840312156135e1576135e06127cc565b5b600082015167ffffffffffffffff8111156135ff576135fe6127d1565b5b61360b8482850161359d565b9150509291505056fea2646970667358221220e43fc0cb7d0dc21daf55b67978062a846ad77940c0e8063afc622bae0faa1a2164736f6c63430008110033",
  "linkReferences": {},
  "deployedLinkReferences": {}
}