{
    "_format": "hh-sol-artifact-1",
    "contractName": "Chess",
    "sourceName": "contracts/chess.sol",
    "abi": [
        {
            "inputs": [
                {
                    "internalType": "address",
                    "name": "_betting",
                    "type": "address"
                }
            ],
            "stateMutability": "nonpayable",
            "type": "constructor"
        },
        {
            "anonymous": false,
            "inputs": [],
            "name": "check",
            "type": "event"
        },
        {
            "anonymous": false,
            "inputs": [
                {
                    "indexed": false,
                    "internalType": "uint256",
                    "name": "gameState",
                    "type": "uint256"
                },
                {
                    "indexed": false,
                    "internalType": "uint256",
                    "name": "leela_state",
                    "type": "uint256"
                },
                {
                    "indexed": false,
                    "internalType": "uint256",
                    "name": "world_state",
                    "type": "uint256"
                },
                {
                    "indexed": false,
                    "internalType": "bool",
                    "name": "leelaColor",
                    "type": "bool"
                },
                {
                    "indexed": false,
                    "internalType": "bool",
                    "name": "leelaMove",
                    "type": "bool"
                }
            ],
            "name": "movePlayed",
            "type": "event"
        },
        {
            "inputs": [],
            "name": "betting",
            "outputs": [
                {
                    "internalType": "contract BettingGame",
                    "name": "",
                    "type": "address"
                }
            ],
            "stateMutability": "view",
            "type": "function"
        },
        {
            "inputs": [],
            "name": "boardState",
            "outputs": [
                {
                    "internalType": "uint256",
                    "name": "",
                    "type": "uint256"
                }
            ],
            "stateMutability": "view",
            "type": "function"
        },
        {
            "inputs": [
                {
                    "internalType": "uint256",
                    "name": "gameState",
                    "type": "uint256"
                },
                {
                    "internalType": "uint8",
                    "name": "fromPos",
                    "type": "uint8"
                },
                {
                    "internalType": "uint32",
                    "name": "playerState",
                    "type": "uint32"
                },
                {
                    "internalType": "bool",
                    "name": "currentTurnBlack",
                    "type": "bool"
                }
            ],
            "name": "checkBishopValidMoves",
            "outputs": [
                {
                    "internalType": "bool",
                    "name": "",
                    "type": "bool"
                }
            ],
            "stateMutability": "pure",
            "type": "function"
        },
        {
            "inputs": [],
            "name": "checkEndgame",
            "outputs": [
                {
                    "internalType": "uint8",
                    "name": "",
                    "type": "uint8"
                }
            ],
            "stateMutability": "view",
            "type": "function"
        },
        {
            "inputs": [
                {
                    "internalType": "uint256",
                    "name": "gameState",
                    "type": "uint256"
                },
                {
                    "internalType": "uint32",
                    "name": "playerState",
                    "type": "uint32"
                }
            ],
            "name": "checkForCheck",
            "outputs": [
                {
                    "internalType": "bool",
                    "name": "",
                    "type": "bool"
                }
            ],
            "stateMutability": "pure",
            "type": "function"
        },
        {
            "inputs": [
                {
                    "internalType": "uint256",
                    "name": "gameState",
                    "type": "uint256"
                },
                {
                    "internalType": "uint8",
                    "name": "fromPos",
                    "type": "uint8"
                },
                {
                    "internalType": "uint32",
                    "name": "playerState",
                    "type": "uint32"
                },
                {
                    "internalType": "bool",
                    "name": "currentTurnBlack",
                    "type": "bool"
                }
            ],
            "name": "checkKingValidMoves",
            "outputs": [
                {
                    "internalType": "bool",
                    "name": "",
                    "type": "bool"
                }
            ],
            "stateMutability": "pure",
            "type": "function"
        },
        {
            "inputs": [
                {
                    "internalType": "uint256",
                    "name": "gameState",
                    "type": "uint256"
                },
                {
                    "internalType": "uint8",
                    "name": "fromPos",
                    "type": "uint8"
                },
                {
                    "internalType": "uint32",
                    "name": "playerState",
                    "type": "uint32"
                },
                {
                    "internalType": "bool",
                    "name": "currentTurnBlack",
                    "type": "bool"
                }
            ],
            "name": "checkKnightValidMoves",
            "outputs": [
                {
                    "internalType": "bool",
                    "name": "",
                    "type": "bool"
                }
            ],
            "stateMutability": "pure",
            "type": "function"
        },
        {
            "inputs": [
                {
                    "internalType": "uint16",
                    "name": "move",
                    "type": "uint16"
                }
            ],
            "name": "checkMove",
            "outputs": [
                {
                    "internalType": "bool",
                    "name": "",
                    "type": "bool"
                }
            ],
            "stateMutability": "view",
            "type": "function"
        },
        {
            "inputs": [
                {
                    "internalType": "uint256",
                    "name": "gameState",
                    "type": "uint256"
                },
                {
                    "internalType": "uint8",
                    "name": "fromPos",
                    "type": "uint8"
                },
                {
                    "internalType": "uint32",
                    "name": "playerState",
                    "type": "uint32"
                },
                {
                    "internalType": "uint32",
                    "name": "opponentState",
                    "type": "uint32"
                },
                {
                    "internalType": "bool",
                    "name": "currentTurnBlack",
                    "type": "bool"
                }
            ],
            "name": "checkPawnValidMoves",
            "outputs": [
                {
                    "internalType": "bool",
                    "name": "",
                    "type": "bool"
                }
            ],
            "stateMutability": "pure",
            "type": "function"
        },
        {
            "inputs": [
                {
                    "internalType": "uint256",
                    "name": "gameState",
                    "type": "uint256"
                },
                {
                    "internalType": "uint8",
                    "name": "fromPos",
                    "type": "uint8"
                },
                {
                    "internalType": "uint32",
                    "name": "playerState",
                    "type": "uint32"
                },
                {
                    "internalType": "bool",
                    "name": "currentTurnBlack",
                    "type": "bool"
                }
            ],
            "name": "checkQueenValidMoves",
            "outputs": [
                {
                    "internalType": "bool",
                    "name": "",
                    "type": "bool"
                }
            ],
            "stateMutability": "pure",
            "type": "function"
        },
        {
            "inputs": [
                {
                    "internalType": "uint256",
                    "name": "gameState",
                    "type": "uint256"
                },
                {
                    "internalType": "uint8",
                    "name": "fromPos",
                    "type": "uint8"
                },
                {
                    "internalType": "uint32",
                    "name": "playerState",
                    "type": "uint32"
                },
                {
                    "internalType": "bool",
                    "name": "currentTurnBlack",
                    "type": "bool"
                }
            ],
            "name": "checkRookValidMoves",
            "outputs": [
                {
                    "internalType": "bool",
                    "name": "",
                    "type": "bool"
                }
            ],
            "stateMutability": "pure",
            "type": "function"
        },
        {
            "inputs": [
                {
                    "internalType": "uint256",
                    "name": "gameState",
                    "type": "uint256"
                },
                {
                    "internalType": "uint8",
                    "name": "fromPos",
                    "type": "uint8"
                },
                {
                    "internalType": "uint8",
                    "name": "toPos",
                    "type": "uint8"
                }
            ],
            "name": "commitMove",
            "outputs": [
                {
                    "internalType": "uint256",
                    "name": "newGameState",
                    "type": "uint256"
                }
            ],
            "stateMutability": "pure",
            "type": "function"
        },
        {
            "inputs": [],
            "name": "convertToCircuit",
            "outputs": [
                {
                    "internalType": "uint256[][][]",
                    "name": "",
                    "type": "uint256[][][]"
                }
            ],
            "stateMutability": "view",
            "type": "function"
        },
        {
            "inputs": [],
            "name": "gameIndex",
            "outputs": [
                {
                    "internalType": "uint16",
                    "name": "",
                    "type": "uint16"
                }
            ],
            "stateMutability": "view",
            "type": "function"
        },
        {
            "inputs": [
                {
                    "internalType": "uint16",
                    "name": "",
                    "type": "uint16"
                },
                {
                    "internalType": "uint256",
                    "name": "",
                    "type": "uint256"
                }
            ],
            "name": "gameStateLists",
            "outputs": [
                {
                    "internalType": "uint256",
                    "name": "",
                    "type": "uint256"
                }
            ],
            "stateMutability": "view",
            "type": "function"
        },
        {
            "inputs": [
                {
                    "internalType": "uint8",
                    "name": "fromPos",
                    "type": "uint8"
                },
                {
                    "internalType": "uint8",
                    "name": "toPos",
                    "type": "uint8"
                }
            ],
            "name": "getHorizontalMovement",
            "outputs": [
                {
                    "internalType": "uint8",
                    "name": "",
                    "type": "uint8"
                }
            ],
            "stateMutability": "pure",
            "type": "function"
        },
        {
            "inputs": [
                {
                    "internalType": "uint8",
                    "name": "fromPos",
                    "type": "uint8"
                },
                {
                    "internalType": "uint8",
                    "name": "toPos",
                    "type": "uint8"
                }
            ],
            "name": "getInBetweenMask",
            "outputs": [
                {
                    "internalType": "uint256",
                    "name": "",
                    "type": "uint256"
                }
            ],
            "stateMutability": "pure",
            "type": "function"
        },
        {
            "inputs": [
                {
                    "internalType": "uint8",
                    "name": "pos",
                    "type": "uint8"
                }
            ],
            "name": "getPositionMask",
            "outputs": [
                {
                    "internalType": "uint256",
                    "name": "",
                    "type": "uint256"
                }
            ],
            "stateMutability": "pure",
            "type": "function"
        },
        {
            "inputs": [
                {
                    "internalType": "uint8",
                    "name": "fromPos",
                    "type": "uint8"
                },
                {
                    "internalType": "uint8",
                    "name": "toPos",
                    "type": "uint8"
                }
            ],
            "name": "getVerticalMovement",
            "outputs": [
                {
                    "internalType": "uint8",
                    "name": "",
                    "type": "uint8"
                }
            ],
            "stateMutability": "pure",
            "type": "function"
        },
        {
            "inputs": [],
            "name": "initializeGame",
            "outputs": [],
            "stateMutability": "nonpayable",
            "type": "function"
        },
        {
            "inputs": [],
            "name": "leelaColor",
            "outputs": [
                {
                    "internalType": "bool",
                    "name": "",
                    "type": "bool"
                }
            ],
            "stateMutability": "view",
            "type": "function"
        },
        {
            "inputs": [],
            "name": "leelaTurn",
            "outputs": [
                {
                    "internalType": "bool",
                    "name": "",
                    "type": "bool"
                }
            ],
            "stateMutability": "view",
            "type": "function"
        },
        {
            "inputs": [],
            "name": "moveIndex",
            "outputs": [
                {
                    "internalType": "uint16",
                    "name": "",
                    "type": "uint16"
                }
            ],
            "stateMutability": "view",
            "type": "function"
        },
        {
            "inputs": [
                {
                    "internalType": "uint256",
                    "name": "gameState",
                    "type": "uint256"
                },
                {
                    "internalType": "uint8",
                    "name": "pos",
                    "type": "uint8"
                }
            ],
            "name": "pieceAtPosition",
            "outputs": [
                {
                    "internalType": "uint8",
                    "name": "",
                    "type": "uint8"
                }
            ],
            "stateMutability": "pure",
            "type": "function"
        },
        {
            "inputs": [
                {
                    "internalType": "uint256",
                    "name": "gameState",
                    "type": "uint256"
                },
                {
                    "internalType": "uint8",
                    "name": "pos",
                    "type": "uint8"
                }
            ],
            "name": "pieceUnderAttack",
            "outputs": [
                {
                    "internalType": "bool",
                    "name": "",
                    "type": "bool"
                }
            ],
            "stateMutability": "pure",
            "type": "function"
        },
        {
            "inputs": [
                {
                    "internalType": "uint16",
                    "name": "move",
                    "type": "uint16"
                }
            ],
            "name": "playMove",
            "outputs": [],
            "stateMutability": "nonpayable",
            "type": "function"
        },
        {
            "inputs": [
                {
                    "internalType": "uint256",
                    "name": "gameState",
                    "type": "uint256"
                },
                {
                    "internalType": "uint32",
                    "name": "playerState",
                    "type": "uint32"
                },
                {
                    "internalType": "uint32",
                    "name": "opponentState",
                    "type": "uint32"
                },
                {
                    "internalType": "uint8",
                    "name": "color",
                    "type": "uint8"
                },
                {
                    "internalType": "uint16",
                    "name": "pBitOffset",
                    "type": "uint16"
                },
                {
                    "internalType": "uint16",
                    "name": "bitSize",
                    "type": "uint16"
                }
            ],
            "name": "searchPiece",
            "outputs": [
                {
                    "internalType": "bool",
                    "name": "",
                    "type": "bool"
                }
            ],
            "stateMutability": "pure",
            "type": "function"
        },
        {
            "inputs": [
                {
                    "internalType": "address",
                    "name": "_betting",
                    "type": "address"
                }
            ],
            "name": "setBetting",
            "outputs": [],
            "stateMutability": "nonpayable",
            "type": "function"
        },
        {
            "inputs": [
                {
                    "internalType": "uint256",
                    "name": "gameState",
                    "type": "uint256"
                },
                {
                    "internalType": "uint8",
                    "name": "pos",
                    "type": "uint8"
                },
                {
                    "internalType": "uint8",
                    "name": "piece",
                    "type": "uint8"
                }
            ],
            "name": "setPosition",
            "outputs": [
                {
                    "internalType": "uint256",
                    "name": "",
                    "type": "uint256"
                }
            ],
            "stateMutability": "pure",
            "type": "function"
        },
        {
            "inputs": [
                {
                    "internalType": "uint256",
                    "name": "gameState",
                    "type": "uint256"
                },
                {
                    "internalType": "uint8",
                    "name": "fromPos",
                    "type": "uint8"
                },
                {
                    "internalType": "uint8",
                    "name": "toPos",
                    "type": "uint8"
                },
                {
                    "internalType": "bool",
                    "name": "currentTurnBlack",
                    "type": "bool"
                }
            ],
            "name": "verifyExecuteBishopMove",
            "outputs": [
                {
                    "internalType": "uint256",
                    "name": "",
                    "type": "uint256"
                }
            ],
            "stateMutability": "pure",
            "type": "function"
        },
        {
            "inputs": [
                {
                    "internalType": "uint256",
                    "name": "gameState",
                    "type": "uint256"
                },
                {
                    "internalType": "uint8",
                    "name": "fromPos",
                    "type": "uint8"
                },
                {
                    "internalType": "uint8",
                    "name": "toPos",
                    "type": "uint8"
                },
                {
                    "internalType": "bool",
                    "name": "currentTurnBlack",
                    "type": "bool"
                },
                {
                    "internalType": "uint32",
                    "name": "playerState",
                    "type": "uint32"
                }
            ],
            "name": "verifyExecuteKingMove",
            "outputs": [
                {
                    "internalType": "uint256",
                    "name": "newGameState",
                    "type": "uint256"
                },
                {
                    "internalType": "uint32",
                    "name": "newPlayerState",
                    "type": "uint32"
                }
            ],
            "stateMutability": "pure",
            "type": "function"
        },
        {
            "inputs": [
                {
                    "internalType": "uint256",
                    "name": "gameState",
                    "type": "uint256"
                },
                {
                    "internalType": "uint8",
                    "name": "fromPos",
                    "type": "uint8"
                },
                {
                    "internalType": "uint8",
                    "name": "toPos",
                    "type": "uint8"
                },
                {
                    "internalType": "bool",
                    "name": "currentTurnBlack",
                    "type": "bool"
                }
            ],
            "name": "verifyExecuteKnightMove",
            "outputs": [
                {
                    "internalType": "uint256",
                    "name": "",
                    "type": "uint256"
                }
            ],
            "stateMutability": "pure",
            "type": "function"
        },
        {
            "inputs": [
                {
                    "internalType": "uint256",
                    "name": "gameState",
                    "type": "uint256"
                },
                {
                    "internalType": "uint16",
                    "name": "move",
                    "type": "uint16"
                },
                {
                    "internalType": "bool",
                    "name": "currentTurnBlack",
                    "type": "bool"
                },
                {
                    "internalType": "uint32",
                    "name": "playerState",
                    "type": "uint32"
                },
                {
                    "internalType": "uint32",
                    "name": "opponentState",
                    "type": "uint32"
                }
            ],
            "name": "verifyExecutePawnMove",
            "outputs": [
                {
                    "internalType": "uint256",
                    "name": "newGameState",
                    "type": "uint256"
                },
                {
                    "internalType": "uint32",
                    "name": "newPlayerState",
                    "type": "uint32"
                }
            ],
            "stateMutability": "pure",
            "type": "function"
        },
        {
            "inputs": [
                {
                    "internalType": "uint256",
                    "name": "gameState",
                    "type": "uint256"
                },
                {
                    "internalType": "uint8",
                    "name": "fromPos",
                    "type": "uint8"
                },
                {
                    "internalType": "uint8",
                    "name": "toPos",
                    "type": "uint8"
                },
                {
                    "internalType": "bool",
                    "name": "currentTurnBlack",
                    "type": "bool"
                }
            ],
            "name": "verifyExecuteQueenMove",
            "outputs": [
                {
                    "internalType": "uint256",
                    "name": "",
                    "type": "uint256"
                }
            ],
            "stateMutability": "pure",
            "type": "function"
        },
        {
            "inputs": [
                {
                    "internalType": "uint256",
                    "name": "gameState",
                    "type": "uint256"
                },
                {
                    "internalType": "uint8",
                    "name": "fromPos",
                    "type": "uint8"
                },
                {
                    "internalType": "uint8",
                    "name": "toPos",
                    "type": "uint8"
                },
                {
                    "internalType": "bool",
                    "name": "currentTurnBlack",
                    "type": "bool"
                }
            ],
            "name": "verifyExecuteRookMove",
            "outputs": [
                {
                    "internalType": "uint256",
                    "name": "",
                    "type": "uint256"
                }
            ],
            "stateMutability": "pure",
            "type": "function"
        },
        {
            "inputs": [
                {
                    "internalType": "uint256",
                    "name": "gameState",
                    "type": "uint256"
                },
                {
                    "internalType": "uint8",
                    "name": "pos",
                    "type": "uint8"
                }
            ],
            "name": "zeroPosition",
            "outputs": [
                {
                    "internalType": "uint256",
                    "name": "",
                    "type": "uint256"
                }
            ],
            "stateMutability": "pure",
            "type": "function"
        }
    ],
    "bytecode": "0x608060405260006003556000600460006101000a81548161ffff021916908361ffff1602179055506000600460026101000a81548161ffff021916908361ffff16021790555060006004806101000a81548160ff0219169083151502179055506000600460056101000a81548160ff021916908315150217905550620704ff600460066101000a81548163ffffffff021916908363ffffffff16021790555063383f3cff6004600a6101000a81548163ffffffff021916908363ffffffff160217905550348015620000d057600080fd5b5060405162005f2338038062005f238339818101604052810190620000f69190620001a7565b806000806101000a81548173ffffffffffffffffffffffffffffffffffffffff021916908373ffffffffffffffffffffffffffffffffffffffff16021790555050620001d9565b600080fd5b600073ffffffffffffffffffffffffffffffffffffffff82169050919050565b60006200016f8262000142565b9050919050565b620001818162000162565b81146200018d57600080fd5b50565b600081519050620001a18162000176565b92915050565b600060208284031215620001c057620001bf6200013d565b5b6000620001d08482850162000190565b91505092915050565b615d3a80620001e96000396000f3fe608060405234801561001057600080fd5b506004361061021b5760003560e01c8063715c67a911610125578063c5f22a5a116100ad578063e7f9b5931161007c578063e7f9b59314610726578063eb48504214610756578063ebbb04aa14610786578063fa57effa146107b6578063ff7e513f146107d45761021b565b8063c5f22a5a14610677578063cf1e5b80146106a7578063d35f8953146106d8578063e0ea12fd146107085761021b565b8063a14e3e86116100f4578063a14e3e8614610587578063a4a10e0b146105b7578063a72d6d1d146105e7578063ae9be37a14610617578063b5511f9c146106475761021b565b8063715c67a9146105015780637dfd04e41461051d5780638ad3b1881461054d578063a0a1f49b1461057d5761021b565b80633d92e647116101a85780635654a341116101775780635654a3411461044857806361214b1714610466578063696c0b56146104825780636ace1036146104b35780636d54c26c146104e35761021b565b80633d92e6471461039a5780634750a939146103ca57806350df50a4146103fa57806354dca3e4146104185761021b565b80632b0d8b1f116101ef5780632b0d8b1f146102bc5780632e6daa40146102ec5780632e9e835e1461031c57806330d6d5491461034c57806339b4b0d61461037c5761021b565b8062699d011461022057806303134e261461023e5780631b7bbf221461026e5780632098b5c01461028c575b600080fd5b610228610804565b6040516102359190614bcc565b60405180910390f35b61025860048036038101906102539190614c25565b610817565b6040516102659190614c7e565b60405180910390f35b6102766109ff565b6040516102839190614ca8565b60405180910390f35b6102a660048036038101906102a19190614cc3565b610b16565b6040516102b39190614c7e565b60405180910390f35b6102d660048036038101906102d19190614d92565b610b57565b6040516102e39190614bcc565b60405180910390f35b61030660048036038101906103019190614e1f565b610dbf565b6040516103139190614c7e565b60405180910390f35b61033660048036038101906103319190614e72565b610df1565b6040516103439190614c7e565b60405180910390f35b61036660048036038101906103619190614eb2565b610e22565b6040516103739190614bcc565b60405180910390f35b6103846118be565b6040516103919190614f71565b60405180910390f35b6103b460048036038101906103af9190614fb8565b6118e2565b6040516103c19190614bcc565b60405180910390f35b6103e460048036038101906103df9190614c25565b611c31565b6040516103f19190614ca8565b60405180910390f35b610402611c81565b60405161040f919061502e565b60405180910390f35b610432600480360381019061042d9190615049565b611c95565b60405161043f9190614bcc565b60405180910390f35b610450611f8e565b60405161045d919061502e565b60405180910390f35b610480600480360381019061047b91906150b4565b611fa2565b005b61049c600480360381019061049791906150e1565b61203f565b6040516104aa92919061516b565b60405180910390f35b6104cd60048036038101906104c89190615194565b612439565b6040516104da9190614c7e565b60405180910390f35b6104eb612524565b6040516104f89190614bcc565b60405180910390f35b61051b60048036038101906105169190615049565b612535565b005b61053760048036038101906105329190614fb8565b612b36565b6040516105449190614bcc565b60405180910390f35b61056760048036038101906105629190614fb8565b612df1565b6040516105749190614bcc565b60405180910390f35b610585613390565b005b6105a1600480360381019061059c9190615194565b6135e1565b6040516105ae9190614c7e565b60405180910390f35b6105d160048036038101906105cc9190614eb2565b6136c3565b6040516105de9190614ca8565b60405180910390f35b61060160048036038101906105fc9190615194565b6136e3565b60405161060e9190614c7e565b60405180910390f35b610631600480360381019061062c9190614fb8565b6137d6565b60405161063e9190614bcc565b60405180910390f35b610661600480360381019061065c9190615194565b613ae1565b60405161066e9190614c7e565b60405180910390f35b610691600480360381019061068c9190614e1f565b613be3565b60405161069e9190614c7e565b60405180910390f35b6106c160048036038101906106bc91906151fb565b613c26565b6040516106cf92919061516b565b60405180910390f35b6106f260048036038101906106ed9190614c25565b613ef5565b6040516106ff9190614ca8565b60405180910390f35b610710613f35565b60405161071d91906154b8565b60405180910390f35b610740600480360381019061073b9190614fb8565b614551565b60405161074d9190614bcc565b60405180910390f35b610770600480360381019061076b9190614eb2565b6148a5565b60405161077d9190614c7e565b60405180910390f35b6107a0600480360381019061079b91906154da565b6148c6565b6040516107ad9190614bcc565b60405180910390f35b6107be614910565b6040516107cb9190614c7e565b60405180910390f35b6107ee60048036038101906107e9919061551a565b614916565b6040516107fb9190614bcc565b60405180910390f35b600460059054906101000a900460ff1681565b6000806108248484613ef5565b905060006108328585611c31565b90508060ff168260ff16148061084b575060008260ff16145b80610859575060008160ff16145b610898576040517f08c379a000000000000000000000000000000000000000000000000000000000815260040161088f906155f2565b60405180910390fd5b60006108a386610b16565b905060006108b086610b16565b9050600060078816600788166108c6919061564e565b9050600060038960ff16901c60038960ff16901c6108e4919061564e565b90506000808360000b1380156108fd575060008260000b135b8061091a575060008360000b128015610919575060008260000b125b5b1561092857602490506109b2565b60008360000b14801561093f575060008260000b14155b1561094d57602090506109b1565b60008360000b138015610963575060008260000b125b80610980575060008360000b12801561097f575060008260000b135b5b1561098e57601c90506109b0565b60008360000b141580156109a5575060008260000b145b156109af57600490505b5b5b5b60005b8585146109ee57848610156109d2578160ff1686901b95506109dc565b8160ff1686901c95505b8585146109e95785811790505b6109b5565b809850505050505050505092915050565b6000806003549050600080600460059054906101000a900460ff1615610a4e576004600a9054906101000a900463ffffffff169150600460069054906101000a900463ffffffff169050610a79565b600460069054906101000a900463ffffffff1691506004600a9054906101000a900463ffffffff1690505b6000600f600260ff16600861ffff168563ffffffff16901c60ff16901b60ff1685901c169050600660ff16600819821660ff1614610aba57610ab96156a7565b5b6000610ad0858585856008166000610100610b57565b9050610adc85856148c6565b15610afc5780610aed576002610af0565b60005b95505050505050610b13565b80610b08576001610b0b565b60005b955050505050505b90565b6000600460078316610b2891906156d6565b6020600760038560ff16901c16610b3f91906156d6565b610b499190615713565b60ff16600f901b9050919050565b6000600460ff168261ffff161115610c33576000600283610b789190615777565b905060008161ffff167fffffffffffffffffffffffffffffffffffffffffffffffffffffffffffffffff901b1990506000818387610bb691906157a8565b61ffff168b901c16905060008114610bf357610be18a8a8a8a878b610bdb91906157a8565b88610b57565b15610bf25760019350505050610db5565b5b6000828761ffff168c901c16905060008114610c2a57610c178b8b8b8b8b89610b57565b15610c29576001945050505050610db5565b5b50505050610db0565b6000600f8461ffff1689901c16905060008160ff16118015610c5d57508460ff166008821660ff16145b15610dae576000600460ff1685610c749190615777565b90506000808760ff16141590506000600784169050600660ff168160ff16148015610ca75750610ca68b848c85614551565b5b15610cb9576001945050505050610db5565b600160ff168160ff16148015610cd85750610cd78b848c8c86614916565b5b15610cea576001945050505050610db5565b600360ff168160ff16148015610d085750610d078b848c856118e2565b5b15610d1a576001945050505050610db5565b600460ff168160ff16148015610d385750610d378b848c85612b36565b5b15610d4a576001945050505050610db5565b600260ff168160ff16148015610d685750610d678b848c856137d6565b5b15610d7a576001945050505050610db5565b600560ff168160ff16148015610d985750610d978b848c85612df1565b5b15610daa576001945050505050610db5565b5050505b505b600090505b9695505050505050565b600080600484610dcf91906156d6565b90508060ff168360ff16901b8160ff16600f901b198616179150509392505050565b60016020528160005260406000208181548110610e0d57600080fd5b90600052602060002001600091509150505481565b600080600f600484610e3491906156d6565b60ff1685901c1690506000806008831660ff1611610e53576008610e56565b60005b60011790506000806008841660ff1611610e71576008610e74565b60005b60021790506000806008851660ff1611610e8f576008610e92565b60005b60031790506000806008861660ff1611610ead576008610eb0565b60005b60041790506000806008871660ff1611610ecb576008610ece565b60005b60051790506000806008881660ff1611610ee9576008610eec565b60005b6006179050600096506000806001905060088b610f099190615713565b91505b60408260ff161015610fa257600f600483610f2791906156d6565b60ff168d901c16985060008960ff161115610f8a578460ff168960ff161480610f5557508360ff168960ff16145b80610f6e5750808015610f6d57508260ff168960ff16145b5b15610f8557600199505050505050505050506118b8565b610fa2565b600882610f979190615713565b915060009050610f0c565b6001905060088b610fb391906157de565b91505b8a60ff168260ff16101561104e57600f600483610fd391906156d6565b60ff168d901c16985060008960ff161115611036578460ff168960ff16148061100157508360ff168960ff16145b8061101a575080801561101957508260ff168960ff16145b5b1561103157600199505050505050505050506118b8565b61104e565b60088261104391906157de565b915060009050610fb6565b6001905060018b61105f9190615713565b91505b60038260ff16901c60ff1660038c60ff16901c60ff160361110757600f60048361108c91906156d6565b60ff168d901c16985060008960ff1611156110ef578460ff168960ff1614806110ba57508360ff168960ff16145b806110d357508080156110d257508260ff168960ff16145b5b156110ea57600199505050505050505050506118b8565b611107565b6001826110fc9190615713565b915060009050611062565b6001905060018b61111891906157de565b91505b60038260ff16901c60ff1660038c60ff16901c60ff16036111c057600f60048361114591906156d6565b60ff168d901c16985060008960ff1611156111a8578460ff168960ff16148061117357508360ff168960ff16145b8061118c575080801561118b57508260ff168960ff16145b5b156111a357600199505050505050505050506118b8565b6111c0565b6001826111b591906157de565b91506000905061111b565b6001905060098b6111d19190615713565b91505b60408260ff161080156111f2575060078b1660ff166007831660ff16115b156112a657600f60048361120691906156d6565b60ff168d901c16985060008960ff16111561128e578660ff168960ff16148061123457508360ff168960ff16145b80611272575080801561127157508260ff168960ff16148061127057508760ff168960ff1614801561126f5750600860ff166008891660ff16145b5b5b5b1561128957600199505050505050505050506118b8565b6112a6565b60098261129b9190615713565b9150600090506111d4565b6001905060078b6112b79190615713565b91505b60408260ff161080156112d8575060078b1660ff166007831660ff16105b1561138c57600f6004836112ec91906156d6565b60ff168d901c16985060008960ff161115611374578660ff168960ff16148061131a57508360ff168960ff16145b80611358575080801561135757508260ff168960ff16148061135657508760ff168960ff161480156113555750600860ff166008891660ff16145b5b5b5b1561136f57600199505050505050505050506118b8565b61138c565b6007826113819190615713565b9150600090506112ba565b6001905060078b61139d91906157de565b91505b60408260ff161080156113be575060078b1660ff166007831660ff16115b1561146f57600f6004836113d291906156d6565b60ff168d901c16985060008960ff161115611457578660ff168960ff16148061140057508360ff168960ff16145b8061143b575080801561143a57508260ff168960ff16148061143957508760ff168960ff16148015611438575060006008891660ff16145b5b5b5b1561145257600199505050505050505050506118b8565b61146f565b60078261146491906157de565b9150600090506113a0565b6001905060098b61148091906157de565b91505b60408260ff161080156114a1575060078b1660ff166007831660ff16105b1561155257600f6004836114b591906156d6565b60ff168d901c16985060008960ff16111561153a578660ff168960ff1614806114e357508360ff168960ff16145b8061151e575080801561151d57508260ff168960ff16148061151c57508760ff168960ff1614801561151b575060006008891660ff16145b5b5b5b1561153557600199505050505050505050506118b8565b611552565b60098261154791906157de565b915060009050611483565b60118b61155f9190615713565b915060408260ff1610801561157f575060078b1660ff166007831660ff16115b80156115a557508560ff16600f60048461159991906156d6565b60ff168e901c1660ff16145b156115bc57600199505050505050505050506118b8565b600f8b6115c99190615713565b915060408260ff161080156115e9575060078b1660ff166007831660ff16105b801561160f57508560ff16600f60048461160391906156d6565b60ff168e901c1660ff16145b1561162657600199505050505050505050506118b8565b600a8b6116339190615713565b915060408260ff16108015611653575060078b1660ff166007831660ff16115b801561167957508560ff16600f60048461166d91906156d6565b60ff168e901c1660ff16145b1561169057600199505050505050505050506118b8565b60068b61169d9190615713565b915060408260ff161080156116bd575060078b1660ff166007831660ff16105b80156116e357508560ff16600f6004846116d791906156d6565b60ff168e901c1660ff16145b156116fa57600199505050505050505050506118b8565b60118b61170791906157de565b91508a60ff168260ff16108015611729575060078b1660ff166007831660ff16105b801561174f57508560ff16600f60048461174391906156d6565b60ff168e901c1660ff16145b1561176657600199505050505050505050506118b8565b600a8b61177391906157de565b91508a60ff168260ff16108015611795575060078b1660ff166007831660ff16105b80156117bb57508560ff16600f6004846117af91906156d6565b60ff168e901c1660ff16145b156117d257600199505050505050505050506118b8565b600f8b6117df91906157de565b91508a60ff168260ff16108015611801575060078b1660ff166007831660ff16115b801561182757508560ff16600f60048461181b91906156d6565b60ff168e901c1660ff16145b1561183e57600199505050505050505050506118b8565b60068b61184b91906157de565b91508a60ff168260ff1610801561186d575060078b1660ff166007831660ff16115b801561189357508560ff16600f60048461188791906156d6565b60ff168e901c1660ff16145b156118aa57600199505050505050505050506118b8565b600099505050505050505050505b92915050565b60008054906101000a900473ffffffffffffffffffffffffffffffffffffffff1681565b600080600080600861ffff168663ffffffff16901c90506006876119069190615713565b9150611914888884886136e3565b92507fffffffffffffffffffffffffffffffffffffffffffffffffffffffffffffffff831415801561194d575061194b8382610e22565b155b1561195e5760019350505050611c29565b60068761196b91906157de565b9150611979888884886136e3565b92507fffffffffffffffffffffffffffffffffffffffffffffffffffffffffffffffff83141580156119b257506119b08382610e22565b155b156119c35760019350505050611c29565b600a876119d09190615713565b91506119de888884886136e3565b92507fffffffffffffffffffffffffffffffffffffffffffffffffffffffffffffffff8314158015611a175750611a158382610e22565b155b15611a285760019350505050611c29565b600a87611a3591906157de565b9150611a43888884886136e3565b92507fffffffffffffffffffffffffffffffffffffffffffffffffffffffffffffffff8314158015611a7c5750611a7a8382610e22565b155b15611a8d5760019350505050611c29565b601187611a9a91906157de565b9150611aa8888884886136e3565b92507fffffffffffffffffffffffffffffffffffffffffffffffffffffffffffffffff8314158015611ae15750611adf8382610e22565b155b15611af25760019350505050611c29565b601187611aff9190615713565b9150611b0d888884886136e3565b92507fffffffffffffffffffffffffffffffffffffffffffffffffffffffffffffffff8314158015611b465750611b448382610e22565b155b15611b575760019350505050611c29565b600f87611b649190615713565b9150611b72888884886136e3565b92507fffffffffffffffffffffffffffffffffffffffffffffffffffffffffffffffff8314158015611bab5750611ba98382610e22565b155b15611bbc5760019350505050611c29565b600f87611bc991906157de565b9150611bd7888884886136e3565b92507fffffffffffffffffffffffffffffffffffffffffffffffffffffffffffffffff8314158015611c105750611c0e8382610e22565b155b15611c215760019350505050611c29565b600093505050505b949350505050565b6000611c5160038460ff16901c60ff1660038460ff16901c60ff16614b7e565b611c6f60038560ff16901c60ff1660038560ff16901c60ff16614b97565b611c799190615813565b905092915050565b600460029054906101000a900461ffff1681565b60008060035490506000603f60068561ffff16901c1690506000603f851690506000806000600460059054906101000a900460ff16158015611ce1575060048054906101000a900460ff165b80611d0f5750600460059054906101000a900460ff168015611d0e575060048054906101000a900460ff16155b5b9050600460059054906101000a900460ff1615611d55576004600a9054906101000a900463ffffffff169250600460069054906101000a900463ffffffff169150611d80565b600460069054906101000a900463ffffffff1692506004600a9054906101000a900463ffffffff1691505b8360ff168560ff1603611dc8576040517f08c379a0000000000000000000000000000000000000000000000000000000008152600401611dbf906158b9565b60405180910390fd5b6000611dd487876136c3565b9050600060078216905060008590506000600160ff168360ff1603611e0f57611e026003548d878a8a61203f565b8093508192505050611f2b565b600360ff168360ff1603611e3257611e2b6003548a8a886136e3565b9050611f2a565b600260ff168360ff1603611e5557611e4e6003548a8a886135e1565b9050611f29565b600460ff168360ff1603611ec657611e716003548a8a88612439565b9050601061ffff168763ffffffff16901c60ff168960ff1603611e9b576280000087179150611ec1565b601861ffff168763ffffffff16901c60ff168960ff1603611ec0576380000000871791505b5b611f28565b600560ff168360ff1603611ee957611ee26003548a8a88613ae1565b9050611f27565b600660ff168360ff1603611f1357611f066003548a8a888b613c26565b8093508192505050611f26565b60009a5050505050505050505050611f89565b5b5b5b5b5b7fffffffffffffffffffffffffffffffffffffffffffffffffffffffffffffffff8114158015611f625750611f6081876148c6565b155b15611f7a5760019a5050505050505050505050611f89565b60009a50505050505050505050505b919050565b600460009054906101000a900461ffff1681565b600260009054906101000a900473ffffffffffffffffffffffffffffffffffffffff1673ffffffffffffffffffffffffffffffffffffffff163373ffffffffffffffffffffffffffffffffffffffff1614611ffc57600080fd5b806000806101000a81548173ffffffffffffffffffffffffffffffffffffffff021916908373ffffffffffffffffffffffffffffffffffffffff16021790555050565b6000806000603f60068861ffff16901c1690506000603f881690506000600c8961ffff16901c90508693508260ff168260ff16101515881515146120ac577fffffffffffffffffffffffffffffffffffffffffffffffffffffffffffffffff60009450945050505061242f565b60006120be8460ff168460ff16614b7e565b6120ce8560ff168560ff16614b97565b6120d89190615813565b905060006120e68c856136c3565b905060088260ff1614806120fd575060108260ff16145b156122415760008160ff161461213e577fffffffffffffffffffffffffffffffffffffffffffffffffffffffffffffffff600096509650505050505061242f565b60108260ff160361223c578980156121615750600660038660ff16901c60ff1614155b806121815750891580156121805750600160038660ff16901c60ff1614155b5b156121b7577fffffffffffffffffffffffffffffffffffffffffffffffffffffffffffffffff600096509650505050505061242f565b60008560ff168560ff16116121d8576008856121d39190615713565b6121e6565b6008866121e59190615713565b5b905060006121f48e836136c3565b60ff161461222e577fffffffffffffffffffffffffffffffffffffffffffffffffffffffffffffffff60009750975050505050505061242f565b8060ff1660ff198816179650505b61233f565b60078260ff161480612256575060098260ff16145b1561230d5760016122678686611c31565b60ff16146122a0577fffffffffffffffffffffffffffffffffffffffffffffffffffffffffffffffff600096509650505050505061242f565b8360ff1660ff891660ff16146123085760008160ff1614806122d15750600860ff166008821660ff161415158a1515145b15612307577fffffffffffffffffffffffffffffffffffffffffffffffffffffffffffffffff600096509650505050505061242f565b5b61233e565b7fffffffffffffffffffffffffffffffffffffffffffffffffffffffffffffffff600096509650505050505061242f565b5b61234a8c8686613be3565b96508980156123635750600060038560ff16901c60ff16145b806123825750891580156123815750600760038560ff16901c60ff16145b5b1561242957600260ff168360ff1614806123a25750600360ff168360ff16145b806123b35750600460ff168360ff16145b806123c45750600560ff168360ff16145b612403576040517f08c379a00000000000000000000000000000000000000000000000000000000081526004016123fa90615925565b60405180910390fd5b61242661241088866148a5565b858c61241c5785612421565b600886175b610dbf565b96505b50505050505b9550959350505050565b60008061244686856136c3565b905060008160ff16111561249557821515600860ff166008831660ff1614151503612494577fffffffffffffffffffffffffffffffffffffffffffffffffffffffffffffffff91505061251c565b5b60006124a18686613ef5565b905060006124af8787611c31565b905060008160ff1611151560008360ff1611151514806124db575060006124d68888610817565b891614155b1561250b577fffffffffffffffffffffffffffffffffffffffffffffffffffffffffffffffff935050505061251c565b612516888888613be3565b93505050505b949350505050565b60048054906101000a900460ff1681565b60008054906101000a900473ffffffffffffffffffffffffffffffffffffffff1673ffffffffffffffffffffffffffffffffffffffff163373ffffffffffffffffffffffffffffffffffffffff16146125c3576040517f08c379a00000000000000000000000000000000000000000000000000000000081526004016125ba906159b7565b60405180910390fd5b6000603f60068361ffff16901c1690506000603f83169050600080600460059054906101000a900460ff1615612622576004600a9054906101000a900463ffffffff169150600460069054906101000a900463ffffffff16905061264d565b600460069054906101000a900463ffffffff1691506004600a9054906101000a900463ffffffff1690505b8260ff168460ff1603612695576040517f08c379a000000000000000000000000000000000000000000000000000000000815260040161268c906158b9565b60405180910390fd5b60006126a3600354866136c3565b90506000600460059054906101000a900460ff161580156126ce575060048054906101000a900460ff165b806126fc5750600460059054906101000a900460ff1680156126fb575060048054906101000a900460ff16155b5b90506000600783169050600085905060008590506000600160ff168460ff160361273c5761272f6003548c878b8b61203f565b8094508192505050612880565b600360ff168460ff160361275f576127586003548b8b886136e3565b905061287f565b600260ff168460ff16036127825761277b6003548b8b886135e1565b905061287e565b600460ff168460ff16036127f35761279e6003548b8b88612439565b9050601061ffff168863ffffffff16901c60ff168a60ff16036127c85762800000881792506127ee565b601861ffff168863ffffffff16901c60ff168a60ff16036127ed576380000000881792505b5b61287d565b600560ff168460ff16036128165761280f6003548b8b88613ae1565b905061287c565b600660ff168460ff1603612840576128336003548b8b888c613c26565b809450819250505061287b565b6040517f08c379a000000000000000000000000000000000000000000000000000000000815260040161287290615a23565b60405180910390fd5b5b5b5b5b5b7fffffffffffffffffffffffffffffffffffffffffffffffffffffffffffffffff81036128e2576040517f08c379a00000000000000000000000000000000000000000000000000000000081526004016128d990615a8f565b60405180910390fd5b60ff871663ffffffff168960ff1603612932578415612918576129118160088b61290c9190615713565b6148a5565b9050612931565b61292e8160088b61292991906157de565b6148a5565b90505b5b60ff87179150612944600354886148c6565b15612984576040517f08c379a000000000000000000000000000000000000000000000000000000000815260040161297b90615b21565b60405180910390fd5b80600381905550600460059054906101000a900460ff16156129e757826004600a6101000a81548163ffffffff021916908363ffffffff16021790555081600460066101000a81548163ffffffff021916908363ffffffff160217905550612a2a565b82600460066101000a81548163ffffffff021916908363ffffffff160217905550816004600a6101000a81548163ffffffff021916908363ffffffff1602179055505b7f4c41c4733c4d3db9962bc651cb08ef027e2ca0ba769faf30db4ed377c88242bc6003546004600a9054906101000a900463ffffffff16600460069054906101000a900463ffffffff1660048054906101000a900460ff16600460059054906101000a900460ff16604051612aa3959493929190615b72565b60405180910390a1600460059054906101000a900460ff1615600460056101000a81548160ff02191690831515021790555060016000600460009054906101000a900461ffff1661ffff1661ffff16815260200190815260200160002060035490806001815401808255809150506001900390600052602060002001600090919091909150555050505050505050505050565b600080600080600861ffff168663ffffffff16901c9050600187612b5a91906157de565b91505b6007871660ff166007831660ff161015612bf557612b7d88888488612439565b92507fffffffffffffffffffffffffffffffffffffffffffffffffffffffffffffffff8314158015612bb65750612bb48382610e22565b155b15612bc75760019350505050612de9565b6000600f600260ff168460ff16901b60ff168a901c1603612bf5578180612bed90615bc5565b925050612b5d565b600187612c029190615713565b91505b6007871660ff166007831660ff161115612c9d57612c2588888488612439565b92507fffffffffffffffffffffffffffffffffffffffffffffffffffffffffffffffff8314158015612c5e5750612c5c8382610e22565b155b15612c6f5760019350505050612de9565b6000600f600260ff168460ff16901b60ff168a901c1603612c9d578180612c9590615bee565b925050612c05565b600887612caa9190615713565b91505b60408260ff161015612d3e57612cc588888488612439565b92507fffffffffffffffffffffffffffffffffffffffffffffffffffffffffffffffff8314158015612cfe5750612cfc8382610e22565b155b15612d0f5760019350505050612de9565b6000600f600260ff168460ff16901b60ff168a901c1603612d3e57600882612d379190615713565b9150612cad565b600887612d4b91906157de565b91505b8660ff168260ff161015612de157612d6888888488612439565b92507fffffffffffffffffffffffffffffffffffffffffffffffffffffffffffffffff8314158015612da15750612d9f8382610e22565b155b15612db25760019350505050612de9565b6000600f600260ff168460ff16901b60ff168a901c1603612de157600882612dda91906157de565b9150612d4e565b600093505050505b949350505050565b600080600080600861ffff168663ffffffff16901c9050600187612e1591906157de565b91505b6007871660ff166007831660ff161015612eb057612e3888888488613ae1565b92507fffffffffffffffffffffffffffffffffffffffffffffffffffffffffffffffff8314158015612e715750612e6f8382610e22565b155b15612e825760019350505050613388565b6000600f600260ff168460ff16901b60ff168a901c1603612eb0578180612ea890615bc5565b925050612e18565b600187612ebd9190615713565b91505b6007871660ff166007831660ff161115612f5857612ee088888488613ae1565b92507fffffffffffffffffffffffffffffffffffffffffffffffffffffffffffffffff8314158015612f195750612f178382610e22565b155b15612f2a5760019350505050613388565b6000600f600260ff168460ff16901b60ff168a901c1603612f58578180612f5090615bee565b925050612ec0565b600887612f659190615713565b91505b60408260ff161015612ff957612f8088888488613ae1565b92507fffffffffffffffffffffffffffffffffffffffffffffffffffffffffffffffff8314158015612fb95750612fb78382610e22565b155b15612fca5760019350505050613388565b6000600f600260ff168460ff16901b60ff168a901c1603612ff957600882612ff29190615713565b9150612f68565b60088761300691906157de565b91505b8660ff168260ff16101561309c5761302388888488613ae1565b92507fffffffffffffffffffffffffffffffffffffffffffffffffffffffffffffffff831415801561305c575061305a8382610e22565b155b1561306d5760019350505050613388565b6000600f600260ff168460ff16901b60ff168a901c160361309c5760088261309591906157de565b9150613009565b6009876130a99190615713565b91505b60408260ff161080156130ca57506007871660ff166007831660ff16115b15613154576130db88888488613ae1565b92507fffffffffffffffffffffffffffffffffffffffffffffffffffffffffffffffff831415801561311457506131128382610e22565b155b156131255760019350505050613388565b6000600f600260ff168460ff16901b60ff168a901c16036131545760098261314d9190615713565b91506130ac565b6007876131619190615713565b91505b60408260ff1610801561318257506007871660ff166007831660ff16105b1561320c5761319388888488613ae1565b92507fffffffffffffffffffffffffffffffffffffffffffffffffffffffffffffffff83141580156131cc57506131ca8382610e22565b155b156131dd5760019350505050613388565b6000600f600260ff168460ff16901b60ff168a901c160361320c576007826132059190615713565b9150613164565b60078761321991906157de565b91505b8660ff168260ff1610801561323c57506007871660ff166007831660ff16115b156132c65761324d88888488613ae1565b92507fffffffffffffffffffffffffffffffffffffffffffffffffffffffffffffffff831415801561328657506132848382610e22565b155b156132975760019350505050613388565b6000600f600260ff168460ff16901b60ff168a901c16036132c6576007826132bf91906157de565b915061321c565b6009876132d391906157de565b91505b8660ff168260ff161080156132f657506007871660ff166007831660ff16105b156133805761330788888488613ae1565b92507fffffffffffffffffffffffffffffffffffffffffffffffffffffffffffffffff8314158015613340575061333e8382610e22565b155b156133515760019350505050613388565b6000600f600260ff168460ff16901b60ff168a901c16036133805760098261337991906157de565b91506132d6565b600093505050505b949350505050565b60008054906101000a900473ffffffffffffffffffffffffffffffffffffffff1673ffffffffffffffffffffffffffffffffffffffff163373ffffffffffffffffffffffffffffffffffffffff161461341e576040517f08c379a0000000000000000000000000000000000000000000000000000000008152600401613415906159b7565b60405180910390fd5b6001600460009054906101000a900461ffff1661343b91906157a8565b600460006101000a81548161ffff021916908361ffff1602179055506000600460026101000a81548161ffff021916908361ffff16021790555060048054906101000a900460ff16156004806101000a81548160ff02191690831515021790555060048054906101000a900460ff166134fc57620704ff600460066101000a81548163ffffffff021916908363ffffffff16021790555063383f3cff6004600a6101000a81548163ffffffff021916908363ffffffff160217905550613546565b620704ff6004600a6101000a81548163ffffffff021916908363ffffffff16021790555063383f3cff600460066101000a81548163ffffffff021916908363ffffffff1602179055505b60048054906101000a900460ff16600460056101000a81548160ff02191690831515021790555060016000600460009054906101000a900461ffff1661ffff1661ffff1681526020019081526020016000207fcbaedabc999999990000000000000000000000000000000011111111432652349080600181540180825580915050600190039060005260206000200160009091909190915055565b6000806135ee86856136c3565b905060008160ff16111561363d57821515600860ff166008831660ff161415150361363c577fffffffffffffffffffffffffffffffffffffffffffffffffffffffffffffffff9150506136bb565b5b60006136498686613ef5565b905060006136578787611c31565b90508060ff168260ff1614158061367a575060006136758888610817565b891614155b156136aa577fffffffffffffffffffffffffffffffffffffffffffffffffffffffffffffffff93505050506136bb565b6136b5888888613be3565b93505050505b949350505050565b6000600f6004836136d491906156d6565b60ff1684901c16905092915050565b6000806136f086856136c3565b905060008160ff16111561373f57821515600860ff166008831660ff161415150361373e577fffffffffffffffffffffffffffffffffffffffffffffffffffffffffffffffff9150506137ce565b5b600061374b8686613ef5565b905060006137598787611c31565b905060028260ff16148015613771575060018160ff16145b8061378e575060018260ff1614801561378d575060028160ff16145b5b6137bd577fffffffffffffffffffffffffffffffffffffffffffffffffffffffffffffffff93505050506137ce565b6137c8888888613be3565b93505050505b949350505050565b600080600080600861ffff168663ffffffff16901c90506009876137fa9190615713565b91505b60408260ff1610801561381b57506007871660ff166007831660ff16115b156138a55761382c888884886135e1565b92507fffffffffffffffffffffffffffffffffffffffffffffffffffffffffffffffff831415801561386557506138638382610e22565b155b156138765760019350505050613ad9565b6000600f600260ff168460ff16901b60ff168a901c16036138a55760098261389e9190615713565b91506137fd565b6007876138b29190615713565b91505b60408260ff161080156138d357506007871660ff166007831660ff16105b1561395d576138e4888884886135e1565b92507fffffffffffffffffffffffffffffffffffffffffffffffffffffffffffffffff831415801561391d575061391b8382610e22565b155b1561392e5760019350505050613ad9565b6000600f600260ff168460ff16901b60ff168a901c160361395d576007826139569190615713565b91506138b5565b60078761396a91906157de565b91505b8660ff168260ff1610801561398d57506007871660ff166007831660ff16115b15613a175761399e888884886135e1565b92507fffffffffffffffffffffffffffffffffffffffffffffffffffffffffffffffff83141580156139d757506139d58382610e22565b155b156139e85760019350505050613ad9565b6000600f600260ff168460ff16901b60ff168a901c1603613a1757600782613a1091906157de565b915061396d565b600987613a2491906157de565b91505b8660ff168260ff16108015613a4757506007871660ff166007831660ff16105b15613ad157613a58888884886135e1565b92507fffffffffffffffffffffffffffffffffffffffffffffffffffffffffffffffff8314158015613a915750613a8f8382610e22565b155b15613aa25760019350505050613ad9565b6000600f600260ff168460ff16901b60ff168a901c1603613ad157600982613aca91906157de565b9150613a27565b600093505050505b949350505050565b600080613aee86856136c3565b905060008160ff161115613b3d57821515600860ff166008831660ff1614151503613b3c577fffffffffffffffffffffffffffffffffffffffffffffffffffffffffffffffff915050613bdb565b5b6000613b498686613ef5565b90506000613b578787611c31565b90508060ff168260ff1614158015613b73575060008260ff1614155b8015613b83575060008160ff1614155b80613b9a57506000613b958888610817565b891614155b15613bca577fffffffffffffffffffffffffffffffffffffffffffffffffffffffffffffffff9350505050613bdb565b613bd5888888613be3565b93505050505b949350505050565b600080600484613bf391906156d6565b90506000600f8260ff1687901c1690508160ff16600f901b1986169250613c1b838583610dbf565b925050509392505050565b600080600861ffff168560ff1663ffffffff16901b63ffff00ff63808000008517161790506000613c5788876136c3565b905060008160ff161115613ca657841515600860ff166008831660ff1614151503613ca5577fffffffffffffffffffffffffffffffffffffffffffffffffffffffffffffffff925050613eeb565b5b60408660ff16101580613cbd575060408760ff1610155b15613ceb577fffffffffffffffffffffffffffffffffffffffffffffffffffffffffffffffff925050613eeb565b6000613cf78888613ef5565b90506000613d058989611c31565b905060018260ff1611158015613d1f575060018160ff1611155b15613d3957613d2f8a8a8a613be3565b9450505050613eeb565b60028260ff16148015613d4f575060008160ff16145b15613ec057613d5e8a8a610e22565b613ebf576000601861ffff168763ffffffff16901c90508860ff16600282613d869190615713565b60ff1603613e125760008b613d9b838d610817565b1603613e0d57613db88b8b60018d613db391906157de565b613be3565b9550613dd08660018c613dcb91906157de565b610e22565b613e0c57613e01613dee8760018d613de891906157de565b8c613be3565b8260018d613dfc91906157de565b613be3565b955050505050613eeb565b5b613ebd565b601061ffff168763ffffffff16901c90508860ff16600182613e3491906157de565b60ff1603613ebc5760008b613e49838d610817565b1603613ebb57613e668b8b60018d613e619190615713565b613be3565b9550613e7e8660018c613e799190615713565b610e22565b613eba57613eaf613e9c8760018d613e969190615713565b8c613be3565b8260018d613eaa9190615713565b613be3565b955050505050613eeb565b5b5b5b505b5b7fffffffffffffffffffffffffffffffffffffffffffffffffffffffffffffffff6000945094505050505b9550959350505050565b6000613f0d6007841660ff166007841660ff16614b7e565b613f236007851660ff166007851660ff16614b97565b613f2d9190615813565b905092915050565b60608060005b60088110156140735760005b60088160ff16101561405f5760005b60088160ff16101561404b576000613f8760035483856008613f7891906156d6565b613f829190615713565b6136c3565b905060008160ff16146140375760088160ff1611613fb157600181613fac91906157de565b613fbf565b600381613fbe91906157de565b5b9050600185600d86613fd19190615c17565b8360ff16613fdf9190615c59565b81518110613ff057613fef615c8d565b5b60200260200101518460ff168151811061400d5761400c615c8d565b5b60200260200101518360ff168151811061402a57614029615c8d565b5b6020026020010181815250505b50808061404390615bee565b915050613f56565b50808061405790615bee565b915050613f47565b50808061406b90615cbc565b915050613f3b565b50600060048054906101000a900460ff166140a057600460069054906101000a900463ffffffff166140b4565b6004600a9054906101000a900463ffffffff165b9050600060048054906101000a900460ff166140e2576004600a9054906101000a900463ffffffff166140f6565b600460069054906101000a900463ffffffff165b90506000603c60ff60088563ffffffff16901c1663ffffffff161490506000603f60ff60108663ffffffff16901c1663ffffffff161490506000603860ff60188763ffffffff16901c1663ffffffff161490506000600460ff60088763ffffffff16901c1663ffffffff161490506000600760ff60108863ffffffff16901c1663ffffffff1614905060008060ff60188963ffffffff16901c1663ffffffff1614905060005b60088160ff1610156145415760005b60088160ff16101561452d578780156141c15750865b6141cc5760006141cf565b60015b60ff168b6068815181106141e6576141e5615c8d565b5b60200260200101518360ff168151811061420357614202615c8d565b5b60200260200101518260ff16815181106142205761421f615c8d565b5b6020026020010181815250508780156142365750855b614241576000614244565b60015b60ff168b60698151811061425b5761425a615c8d565b5b60200260200101518360ff168151811061427857614277615c8d565b5b60200260200101518260ff168151811061429557614294615c8d565b5b6020026020010181815250508480156142ab5750825b6142b65760006142b9565b60015b60ff168b606a815181106142d0576142cf615c8d565b5b60200260200101518360ff16815181106142ed576142ec615c8d565b5b60200260200101518260ff168151811061430a57614309615c8d565b5b6020026020010181815250508480156143205750835b61432b57600061432e565b60015b60ff168b606b8151811061434557614344615c8d565b5b60200260200101518360ff168151811061436257614361615c8d565b5b60200260200101518260ff168151811061437f5761437e615c8d565b5b602002602001018181525050600460059054906101000a900460ff166143a65760006143a9565b60015b60ff168b606c815181106143c0576143bf615c8d565b5b60200260200101518360ff16815181106143dd576143dc615c8d565b5b60200260200101518260ff16815181106143fa576143f9615c8d565b5b60200260200101818152505060008b606d8151811061441c5761441b615c8d565b5b60200260200101518360ff168151811061443957614438615c8d565b5b60200260200101518260ff168151811061445657614455615c8d565b5b60200260200101818152505060008b606e8151811061447857614477615c8d565b5b60200260200101518360ff168151811061449557614494615c8d565b5b60200260200101518260ff16815181106144b2576144b1615c8d565b5b60200260200101818152505060018b606f815181106144d4576144d3615c8d565b5b60200260200101518360ff16815181106144f1576144f0615c8d565b5b60200260200101518260ff168151811061450e5761450d615c8d565b5b602002602001018181525050808061452590615bee565b9150506141ab565b50808061453990615bee565b91505061419c565b5088995050505050505050505090565b600080600060098661456391906157de565b90506145728787838789613c26565b50809250507fffffffffffffffffffffffffffffffffffffffffffffffffffffffffffffffff82141580156145ae57506145ac8282610e22565b155b156145be5760019250505061489d565b6008866145cb91906157de565b90506145da8787838789613c26565b50809250507fffffffffffffffffffffffffffffffffffffffffffffffffffffffffffffffff821415801561461657506146148282610e22565b155b156146265760019250505061489d565b60078661463391906157de565b90506146428787838789613c26565b50809250507fffffffffffffffffffffffffffffffffffffffffffffffffffffffffffffffff821415801561467e575061467c8282610e22565b155b1561468e5760019250505061489d565b60018661469b91906157de565b90506146aa8787838789613c26565b50809250507fffffffffffffffffffffffffffffffffffffffffffffffffffffffffffffffff82141580156146e657506146e48282610e22565b155b156146f65760019250505061489d565b6001866147039190615713565b90506147128787838789613c26565b50809250507fffffffffffffffffffffffffffffffffffffffffffffffffffffffffffffffff821415801561474e575061474c8282610e22565b155b1561475e5760019250505061489d565b60078661476b9190615713565b905061477a8787838789613c26565b50809250507fffffffffffffffffffffffffffffffffffffffffffffffffffffffffffffffff82141580156147b657506147b48282610e22565b155b156147c65760019250505061489d565b6008866147d39190615713565b90506147e28787838789613c26565b50809250507fffffffffffffffffffffffffffffffffffffffffffffffffffffffffffffffff821415801561481e575061481c8282610e22565b155b1561482e5760019250505061489d565b60098661483b9190615713565b905061484a8787838789613c26565b50809250507fffffffffffffffffffffffffffffffffffffffffffffffffffffffffffffffff821415801561488657506148848282610e22565b155b156148965760019250505061489d565b6000925050505b949350505050565b60006004826148b491906156d6565b60ff16600f901b198316905092915050565b600080600861ffff168363ffffffff16901c905060076148e685836136c3565b1660ff16600660ff16146148fd576148fc6156a7565b5b6149078482610e22565b91505092915050565b60035481565b600080600080600590506000600861ffff168863ffffffff16901c90506000600c8360ff16901b60068560ff16901b8b6149509190615713565b61495a9190615713565b60ff169050866149765760078a6149719190615713565b614984565b60078a61498391906157de565b5b93506149938b82898c8c61203f565b50809550507fffffffffffffffffffffffffffffffffffffffffffffffffffffffffffffffff85141580156149cf57506149cd8583610e22565b155b156149e257600195505050505050614b75565b866149f95760088a6149f49190615713565b614a07565b60088a614a0691906157de565b5b9350614a168b82898c8c61203f565b50809550507fffffffffffffffffffffffffffffffffffffffffffffffffffffffffffffffff8514158015614a525750614a508583610e22565b155b15614a6557600195505050505050614b75565b86614a7c5760098a614a779190615713565b614a8a565b60098a614a8991906157de565b5b9350614a998b82898c8c61203f565b50809550507fffffffffffffffffffffffffffffffffffffffffffffffffffffffffffffffff8514158015614ad55750614ad38583610e22565b155b15614ae857600195505050505050614b75565b86614aff5760108a614afa9190615713565b614b0d565b60108a614b0c91906157de565b5b9350614b1c8b82898c8c61203f565b50809550507fffffffffffffffffffffffffffffffffffffffffffffffffffffffffffffffff8514158015614b585750614b568583610e22565b155b15614b6b57600195505050505050614b75565b6000955050505050505b95945050505050565b6000818310614b8d5781614b8f565b825b905092915050565b600081831015614ba75781614ba9565b825b905092915050565b60008115159050919050565b614bc681614bb1565b82525050565b6000602082019050614be16000830184614bbd565b92915050565b600080fd5b600060ff82169050919050565b614c0281614bec565b8114614c0d57600080fd5b50565b600081359050614c1f81614bf9565b92915050565b60008060408385031215614c3c57614c3b614be7565b5b6000614c4a85828601614c10565b9250506020614c5b85828601614c10565b9150509250929050565b6000819050919050565b614c7881614c65565b82525050565b6000602082019050614c936000830184614c6f565b92915050565b614ca281614bec565b82525050565b6000602082019050614cbd6000830184614c99565b92915050565b600060208284031215614cd957614cd8614be7565b5b6000614ce784828501614c10565b91505092915050565b614cf981614c65565b8114614d0457600080fd5b50565b600081359050614d1681614cf0565b92915050565b600063ffffffff82169050919050565b614d3581614d1c565b8114614d4057600080fd5b50565b600081359050614d5281614d2c565b92915050565b600061ffff82169050919050565b614d6f81614d58565b8114614d7a57600080fd5b50565b600081359050614d8c81614d66565b92915050565b60008060008060008060c08789031215614daf57614dae614be7565b5b6000614dbd89828a01614d07565b9650506020614dce89828a01614d43565b9550506040614ddf89828a01614d43565b9450506060614df089828a01614c10565b9350506080614e0189828a01614d7d565b92505060a0614e1289828a01614d7d565b9150509295509295509295565b600080600060608486031215614e3857614e37614be7565b5b6000614e4686828701614d07565b9350506020614e5786828701614c10565b9250506040614e6886828701614c10565b9150509250925092565b60008060408385031215614e8957614e88614be7565b5b6000614e9785828601614d7d565b9250506020614ea885828601614d07565b9150509250929050565b60008060408385031215614ec957614ec8614be7565b5b6000614ed785828601614d07565b9250506020614ee885828601614c10565b9150509250929050565b600073ffffffffffffffffffffffffffffffffffffffff82169050919050565b6000819050919050565b6000614f37614f32614f2d84614ef2565b614f12565b614ef2565b9050919050565b6000614f4982614f1c565b9050919050565b6000614f5b82614f3e565b9050919050565b614f6b81614f50565b82525050565b6000602082019050614f866000830184614f62565b92915050565b614f9581614bb1565b8114614fa057600080fd5b50565b600081359050614fb281614f8c565b92915050565b60008060008060808587031215614fd257614fd1614be7565b5b6000614fe087828801614d07565b9450506020614ff187828801614c10565b935050604061500287828801614d43565b925050606061501387828801614fa3565b91505092959194509250565b61502881614d58565b82525050565b6000602082019050615043600083018461501f565b92915050565b60006020828403121561505f5761505e614be7565b5b600061506d84828501614d7d565b91505092915050565b600061508182614ef2565b9050919050565b61509181615076565b811461509c57600080fd5b50565b6000813590506150ae81615088565b92915050565b6000602082840312156150ca576150c9614be7565b5b60006150d88482850161509f565b91505092915050565b600080600080600060a086880312156150fd576150fc614be7565b5b600061510b88828901614d07565b955050602061511c88828901614d7d565b945050604061512d88828901614fa3565b935050606061513e88828901614d43565b925050608061514f88828901614d43565b9150509295509295909350565b61516581614d1c565b82525050565b60006040820190506151806000830185614c6f565b61518d602083018461515c565b9392505050565b600080600080608085870312156151ae576151ad614be7565b5b60006151bc87828801614d07565b94505060206151cd87828801614c10565b93505060406151de87828801614c10565b92505060606151ef87828801614fa3565b91505092959194509250565b600080600080600060a0868803121561521757615216614be7565b5b600061522588828901614d07565b955050602061523688828901614c10565b945050604061524788828901614c10565b935050606061525888828901614fa3565b925050608061526988828901614d43565b9150509295509295909350565b600081519050919050565b600082825260208201905092915050565b6000819050602082019050919050565b600081519050919050565b600082825260208201905092915050565b6000819050602082019050919050565b600081519050919050565b600082825260208201905092915050565b6000819050602082019050919050565b61530381614c65565b82525050565b600061531583836152fa565b60208301905092915050565b6000602082019050919050565b6000615339826152ce565b61534381856152d9565b935061534e836152ea565b8060005b8381101561537f5781516153668882615309565b975061537183615321565b925050600181019050615352565b5085935050505092915050565b6000615398838361532e565b905092915050565b6000602082019050919050565b60006153b8826152a2565b6153c281856152ad565b9350836020820285016153d4856152be565b8060005b8581101561541057848403895281516153f1858261538c565b94506153fc836153a0565b925060208a019950506001810190506153d8565b50829750879550505050505092915050565b600061542e83836153ad565b905092915050565b6000602082019050919050565b600061544e82615276565b6154588185615281565b93508360208202850161546a85615292565b8060005b858110156154a657848403895281516154878582615422565b945061549283615436565b925060208a0199505060018101905061546e565b50829750879550505050505092915050565b600060208201905081810360008301526154d28184615443565b905092915050565b600080604083850312156154f1576154f0614be7565b5b60006154ff85828601614d07565b925050602061551085828601614d43565b9150509250929050565b600080600080600060a0868803121561553657615535614be7565b5b600061554488828901614d07565b955050602061555588828901614c10565b945050604061556688828901614d43565b935050606061557788828901614d43565b925050608061558888828901614fa3565b9150509295509295909350565b600082825260208201905092915050565b7f696e76206d6f7665000000000000000000000000000000000000000000000000600082015250565b60006155dc600883615595565b91506155e7826155a6565b602082019050919050565b6000602082019050818103600083015261560b816155cf565b9050919050565b60008160000b9050919050565b7f4e487b7100000000000000000000000000000000000000000000000000000000600052601160045260246000fd5b600061565982615612565b915061566483615612565b92508282039050607f81137fffffffffffffffffffffffffffffffffffffffffffffffffffffffffffffff80821217156156a1576156a061561f565b5b92915050565b7f4e487b7100000000000000000000000000000000000000000000000000000000600052600160045260246000fd5b60006156e182614bec565b91506156ec83614bec565b92508282026156fa81614bec565b915080821461570c5761570b61561f565b5b5092915050565b600061571e82614bec565b915061572983614bec565b9250828201905060ff8111156157425761574161561f565b5b92915050565b7f4e487b7100000000000000000000000000000000000000000000000000000000600052601260045260246000fd5b600061578282614d58565b915061578d83614d58565b92508261579d5761579c615748565b5b828204905092915050565b60006157b382614d58565b91506157be83614d58565b9250828201905061ffff8111156157d8576157d761561f565b5b92915050565b60006157e982614bec565b91506157f483614bec565b9250828203905060ff81111561580d5761580c61561f565b5b92915050565b600061581e82614c65565b915061582983614c65565b92508282039050818111156158415761584061561f565b5b92915050565b7f596f75206d757374206d6f766520746865207069656365206174206c6561737460008201527f206f6e6520737465702e00000000000000000000000000000000000000000000602082015250565b60006158a3602a83615595565b91506158ae82615847565b604082019050919050565b600060208201905081810360008301526158d281615896565b9050919050565b7f696e762070726f6d000000000000000000000000000000000000000000000000600082015250565b600061590f600883615595565b915061591a826158d9565b602082019050919050565b6000602082019050818103600083015261593e81615902565b9050919050565b7f4d6179206f6e6c792062652063616c6c6564206279207468652062657474696e60008201527f6720636f6e74726163742e000000000000000000000000000000000000000000602082015250565b60006159a1602b83615595565b91506159ac82615945565b604082019050919050565b600060208201905081810360008301526159d081615994565b9050919050565b7f496e76206d6f7665207479706500000000000000000000000000000000000000600082015250565b6000615a0d600d83615595565b9150615a18826159d7565b602082019050919050565b60006020820190508181036000830152615a3c81615a00565b9050919050565b7f496e76616c6964206d6f76652e00000000000000000000000000000000000000600082015250565b6000615a79600d83615595565b9150615a8482615a43565b602082019050919050565b60006020820190508181036000830152615aa881615a6c565b9050919050565b7f596f752063616e2774206d616b652061206d6f76652074686174206b6565707360008201527f20796f7520696e20636865636b2e000000000000000000000000000000000000602082015250565b6000615b0b602e83615595565b9150615b1682615aaf565b604082019050919050565b60006020820190508181036000830152615b3a81615afe565b9050919050565b6000615b5c615b57615b5284614d1c565b614f12565b614c65565b9050919050565b615b6c81615b41565b82525050565b600060a082019050615b876000830188614c6f565b615b946020830187615b63565b615ba16040830186615b63565b615bae6060830185614bbd565b615bbb6080830184614bbd565b9695505050505050565b6000615bd082614bec565b915060008203615be357615be261561f565b5b600182039050919050565b6000615bf982614bec565b915060ff8203615c0c57615c0b61561f565b5b600182019050919050565b6000615c2282614c65565b9150615c2d83614c65565b9250828202615c3b81614c65565b91508282048414831517615c5257615c5161561f565b5b5092915050565b6000615c6482614c65565b9150615c6f83614c65565b9250828201905080821115615c8757615c8661561f565b5b92915050565b7f4e487b7100000000000000000000000000000000000000000000000000000000600052603260045260246000fd5b6000615cc782614c65565b91507fffffffffffffffffffffffffffffffffffffffffffffffffffffffffffffffff8203615cf957615cf861561f565b5b60018201905091905056fea26469706673582212208bffffda3925a71b30b3c88e3c750414cc1f5a4440120e3dabb133338217200d64736f6c63430008110033",
    "linkReferences": {},
    "deployedLinkReferences": {}
}