{
  "_format": "hh-sol-artifact-1",
  "contractName": "ChessTest",
  "sourceName": "contracts/ChessTest.sol",
  "abi": [
    {
      "inputs": [],
      "name": "game_state",
      "outputs": [
        {
          "internalType": "uint256",
          "name": "",
          "type": "uint256"
        }
      ],
      "stateMutability": "view",
      "type": "function"
    },
    {
      "inputs": [],
      "name": "getGameState",
      "outputs": [
        {
          "internalType": "uint256[64]",
          "name": "_game_state_array",
          "type": "uint256[64]"
        }
      ],
      "stateMutability": "view",
      "type": "function"
    },
    {
      "inputs": [],
      "name": "movePawn",
      "outputs": [],
      "stateMutability": "nonpayable",
      "type": "function"
    }
  ],
  "bytecode": "0x60806040527fcbaedabc9999999900000000000000000000000000000000111111114326523460005534801561003457600080fd5b506102fd806100446000396000f3fe608060405234801561001057600080fd5b50600436106100415760003560e01c80638ae43b5414610046578063b7d0628b14610064578063e2a0590914610082575b600080fd5b61004e61008c565b60405161005b9190610150565b60405180910390f35b61006c610092565b6040516100799190610216565b60405180910390f35b61008a6100eb565b005b60005481565b61009a610114565b60005b60408160ff1610156100e757600f8160ff16600054901c16828260ff16604081106100cb576100ca610232565b5b60200201818152505080806100df9061029d565b91505061009d565b5090565b7fcbaedabc99999990900000000000000000000000000000001111111143265234600081905550565b604051806108000160405280604090602082028036833780820191505090505090565b6000819050919050565b61014a81610137565b82525050565b60006020820190506101656000830184610141565b92915050565b600060409050919050565b600081905092915050565b6000819050919050565b61019481610137565b82525050565b60006101a6838361018b565b60208301905092915050565b6000602082019050919050565b6101c88161016b565b6101d28184610176565b92506101dd82610181565b8060005b8381101561020e5781516101f5878261019a565b9650610200836101b2565b9250506001810190506101e1565b505050505050565b60006108008201905061022c60008301846101bf565b92915050565b7f4e487b7100000000000000000000000000000000000000000000000000000000600052603260045260246000fd5b7f4e487b7100000000000000000000000000000000000000000000000000000000600052601160045260246000fd5b600060ff82169050919050565b60006102a882610290565b915060ff8214156102bc576102bb610261565b5b60018201905091905056fea2646970667358221220572f123d8b4b765d2e0022ffab3389191d7d40cbb151612138f86dc3df7ddc7c64736f6c63430008090033",
  "linkReferences": {},
  "deployedLinkReferences": {}
}